:100000000C946F050C94B6050C94B6050C94B605CB
:100010000C94B6050C94B6050C94B6050C94B60574
:100020000C94B6050C94B6050C949B0E0C946E0FB4
:100030000C94331E0C94B6050C94B6050C94B605BE
:100040000C94B6050C94B6050C94B6050C94B60544
:100050000C94B6050C94A51E0C94B6050C94B6052C
:100060000C94B6050C94B6050C94B6050C94B60524
:100070000C94B6050C94B6050C94B6050C94B60514
:100080000C94B6050C94B6050C94B6050C94B60504
:100090000C94B6050C94B6050C94B6050C94B605F4
:1000A0000C94B6050C94B6050C94B60535A131A197
:1000B000041607090B0A1D1B06196405141A0815F6
:1000C0001C171E1F202123222E26242D2527301207
:1000D000182F0C13280F0D340E33C136381110377A
:1000E0002B2CC02A5829E0E3E182E2504F51520004
:1000F0006C6365556D570053A9AAA8545800566DF6
:100100006E2E62595A5B5C5D5E5F6F6061898785A8
:100110003E3F403C4142914490466B470043654519
:100120000048494A4B4C3D4D3B4E3AE5E6E4000061
:10013000AAA9A8090B0A1D1B06196405141A08159B
:100140001C173A3B3C3D3F3E4542404441434947F2
:1001500018524648284B0D4F4A50C14D5111104E70
:100160002B2CC04C5835E0E3E182E24A4D4E4B0067
:100170006CF565F66DF90053A9AAA8F5F600FA6DBD
:100180006EF4F4FBF1FCF2F1F3FA6FF0F989878574
:100190003E3F403C4142914490466B470043654599
:1001A0000048494A4B4C3D4D3B4E3AE5E6E40000E1
:1001B0006164625F686F73745F6B62645F726563D2
:1001C000763A204552524F52282564290A000A00E7
:1001D00025303458006164625F686F73745F6B62CE
:1001E000645F726563763A20004552524F523A205E
:1001F0006D65646961206B6579300A004552524F24
:10020000523A206D65646961206B6579310A00643A
:100210006562756720656E61626C65642E0A0053C5
:1002200063616E3A20616464723A25642C207265C1
:1002300067333A253034580A004166746572206984
:100240006E69743A0A00466F756E643A206D656493
:100250006961206B6579730A006861646C65725F1F
:1002600069643A20253032582C2069735F69736FB6
:100270005F6C61796F75743A2025730A005363616E
:100280006E3A20616464723A25642C20726567338B
:100290003A253034580A004265666F726520696EEF
:1002A00069743A0A004B6579626F617264207374F5
:1002B0006172742E0A0055534220636F6E6669673F
:1002C000757265642E0A000D0A696E69740A005B16
:1002D000445D005B435D002E03410044004200206A
:1002E000006B006500790062006F006100720064BD
:1002F00000200063006F006E0076006500720074DD
:10030000006500720000000E0374002E006D002EC8
:10031000006B002E000000040309040902740004AD
:100320000100A032090400000103010100092111AC
:100330000100012240000705810308000A090401A9
:10034000000103010200092111010001224D0007F3
:1003500005820308000A09040200010300000009E5
:1003600021110100012236000705830308000A0954
:1003700004030002030000000921110100012222F0
:100380000007058403200001070504032000011273
:1003900001100100000008EDFEDB0A01010102006E
:1003A000010631FF0974A1010975150026FF0095AA
:1003B00020750881020976150026FF009520750832
:1003C0009102C005010980A101850216810026B7AE
:1003D000001A81002AB700751095018100C0050C34
:1003E0000901A1018503160100269C021A01002AB9
:1003F0009C02751095018100C005010902A1010947
:1004000001A10005091901290515002501950575AA
:10041000018102950175038101050109300931153A
:1004200081257F95027508810609381581257F95FC
:100430000175088106050C0A38021581257F950192
:1004400075088106C0C005010906A101050719E06C
:1004500029E71500250195087501810295017508A8
:10046000810105081901290595057501910295017C
:10047000750391010507190029FF150026FF009556
:100480000675088100C0636F6E73756D65723A20E2
:10049000253034580A0073797374656D3A2025301D
:1004A00034580A000A002530325820006B65796202
:1004B0006F6172643A20004C45443A20253032582E
:1004C0000A00253032583A202530386225730A0058
:1004D000722F632030313233343536370A00290A1F
:1004E000002575002F002575005D2800256400207B
:1004F00000256400200025640020002564007C00A5
:1005000025303258006D6F7573656B6579205B62BD
:10051000746E7C782079207620685D287265702F53
:1005200061636C293A205B006D6B5F776865656C71
:100530005F74696D655F746F5F6D6178203D202524
:10054000640A006D6B5F776865656C5F6D61785FED
:100550007370656564203D2025640A006D6B5F74CF
:10056000696D655F746F5F6D6178203D2025640A59
:10057000006D6B5F6D61785F7370656564203D2011
:1005800025640A006D6B5F696E74657276616C201C
:100590003D2025640A006D6B5F64656C6179203DC8
:1005A0002025640A006D6B5F776865656C5F746910
:1005B0006D655F746F5F6D6178203D2025640A0072
:1005C0006D6B5F776865656C5F6D61785F73706593
:1005D0006564203D2025640A006D6B5F74696D655C
:1005E0005F746F5F6D6178203D2025640A006D6B3C
:1005F0005F6D61785F7370656564203D2025640AD6
:10060000006D6B5F696E74657276616C203D2025AC
:10061000640A006D6B5F64656C6179203D20256420
:100620000A000A00257500363A20776865656C5F18
:1006300074696D655F746F5F6D61783A20000A00C0
:10064000257500353A20776865656C5F6D61785F68
:1006500073706565643A20000A00257500343A20FD
:1006600074696D655F746F5F6D61783A20000A0090
:10067000257500333A206D61785F73706565643A63
:1006800020000A00257500323A20696E7465727682
:10069000616C286D73293A20000A00257500313AF3
:1006A0002064656C6179282A31306D73293A200005
:1006B0000A092D2056616C756573202D0A004D3E88
:1006C000004D25643E20003F00736574206465661C
:1006D00061756C740A00433E20007768657265207E
:1006E00064656C74613A20637572736F723D256442
:1006F0002C20776865656C3D25640A536565206824
:100700007474703A2F2F656E2E77696B697065640B
:1007100069612E6F72672F77696B692F4D6F7573E3
:10072000655F6B6579730A000A092D204D6F75733B
:10073000656B6579202D0A4553432F713A09717510
:1007400069740A313A0964656C6179282A31306D1F
:1007500073290A323A09696E74657276616C286D84
:1007600073290A333A096D61785F73706565640AAD
:10077000343A0974696D655F746F5F6D61780A352D
:100780003A09776865656C5F6D61785F7370656560
:10079000640A363A09776865656C5F74696D655FF0
:1007A000746F5F6D61780A0A703A097072696E74CD
:1007B0002076616C7565730A643A09736574206408
:1007C000656661756C74730A75703A092B310A6439
:1007D0006F776E3A092D310A706775703A092B31BF
:1007E000300A7067646F776E3A092D31300A0A73E8
:1007F00070656564203D2064656C7461202A206DFD
:1008000061785F7370656564202A20287265706561
:100810006174202F2074696D655F746F5F6D6178FE
:10082000290A003F004D3E2000433E20004C256435
:100830000A000A092D20436F6E736F6C65202D0A24
:100840004553432F713A09717569740A6D3A096D00
:100850006F7573656B65790A000A092D204D616714
:100860006963202D0A643A0964656275670A783AFB
:10087000096465627567206D61747269780A6B3A04
:10088000096465627567206B6579626F6172640ADD
:100890006D3A096465627567206D6F7573650A76D8
:1008A0003A0976657273696F6E0A733A09737461F7
:1008B0007475730A633A09636F6E736F6C65206DAC
:1008C0006F64650A302D343A096C61796572302D98
:1008D00034284631302D4634290A506175733A095F
:1008E000626F6F746C6F616465720A003F007469B7
:1008F0006D65725F72656164333228293A20253054
:10090000346C580A006B6579626F6172645F696468
:100910006C653A2025580A006B6579626F617264D4
:100920005F70726F746F636F6C3A2025580A0068AD
:100930006F73745F6B6579626F6172645F6C65641D
:100940007328293A2025580A000A092D205374617A
:10095000747573202D0A004743433A20382E312EF8
:1009600030204156522D4C4942433A20322E302EEF
:1009700030204156525F415243483A2061767235E9
:100980000A004F5054494F4E533A204C554641208F
:100990004D4F5553454B45592045585452414B45B1
:1009A0005920434F4E534F4C4520434F4D4D414EE0
:1009B0004420343039360A004255494C443A2064C8
:1009C000643534333135302D6469727479202830C0
:1009D000303A32383A3034204A756C203133203284
:1009E000303138290A005649443A20307846454586
:1009F0004428742E6D2E6B2E29205049443A203005
:100A0000783041444228414442206B6579626F61ED
:100A1000726420636F6E7665727465722920564524
:100A2000523A203078303130310A00444553433A4D
:100A300020636F6E7665727420414442206B657945
:100A4000626F61726420746F205553420A000A0974
:100A50002D2056657273696F6E202D0A000A6D6F26
:100A60007573653A206F66660A000A6D6F75736567
:100A70003A206F6E0A000A6B6579626F6172643AA0
:100A8000206F66660A000A6B6579626F6172643A6C
:100A9000206F6E0A000A6D61747269783A206F6681
:100AA000660A000A6D61747269783A206F6E0A00F6
:100AB0000A64656275673A206F6E0A000A646562AF
:100AC00075673A206F66660A000A0A626F6F746C77
:100AD0006F616465722E2E2E2000433E200011248B
:100AE0001FBECFEFDAE0DEBFCDBF04B603FE27C0E6
:100AF00080915E0290915F02A0916002B0916102CC
:100B00008730904BA740B04BD1F410925E02109208
:100B10005F02109260021092610214BE84B7877F58
:100B200084BF0FB6F894A895809160008861809387
:100B30006000109260000FBEE0E0F8E3099511E05C
:100B4000A0E0B1E0E6E3FFE402C005900D92AA3315
:100B5000B107D9F722E0AAE3B1E001C01D92AE359A
:100B6000B207E1F70E94C60B0C947F270C9400009B
:100B7000FF93EF93E0913A01F0913B01309709F038
:100B80000995EF91FF910895FC018591803011F056
:100B9000EFDFFBCF0895FF27E0E230E247FF0CC014
:100BA000419597FF09C0EDE260957095809590950D
:100BB000611D711D811D911D27FF02C0219530E32C
:100BC00050E2AA27660F771F881F991FAA1FA41734
:100BD00010F0A41B63955A95A9F7AA3008F0A95FF5
:100BE000A05DAF93F395611571058105910541F7FE
:100BF000ED3211F4EF93F395F21718F43F93F39558
:100C0000FBCF8F91B5DFFA95E1F70895E991F9915E
:100C10008591803021F0853219F0AADFF9CF08954F
:100C200020E0E89455915532C1F3503311F46894A3
:100C300055915A3348F4505390F3220F022E220F4D
:100C4000220F200D250FF4CF0EF421958991999153
:100C5000533619F3533729F1533559F1BC0188271D
:100C60009927E8945C3621F489919991689455917B
:100C7000543639F446EF7EF077FF0DC08FEF9FEFCB
:100C80000AC055374AE039F0583540E121F0523674
:100C900042E009F00895FF93EF937DDFEF91FF911C
:100CA000B7CFFF93EF93FC0181918030B9F360DF00
:100CB000FBCFFF93EF9368DFF1CFDF93CF93CDB7F7
:100CC000DEB72596A3DFCF91DF910895E82FE69553
:100CD000E695E695EF70F0E0E25CFE4F9081482FDC
:100CE000477021E030E001C0220F4A95EAF787FF04
:100CF00004C02095292320830895292BFCCF0F932E
:100D00001F93CF93DF93569A5E9A0E94BE082FEFEF
:100D100087EA91E6215080409040E1F700C0000052
:100D200087E992E09F938F930E945D060F900F904A
:100D3000C1E0D0E00DE712E063E08C2F0E94C10813
:100D4000009771F09F938F93DF93CF931F930F932F
:100D50000E945D060F900F900F900F900F900F90D4
:100D60009FEF29EF80E0915020408040E1F700C0E4
:100D700000002196C031D105F9F663E082E00E94BF
:100D8000C10899278131910571F008F093C087302F
:100D9000910549F008F081C09C01245031092230AE
:100DA000310508F082C021E020934E0128E131E0B6
:100DB0003F932F939F938F9389E592E09F938F9317
:100DC0000E945D0663E087E00E94C108992721E048
:100DD0000F900F900F900F900F900F908230910511
:100DE00009F020E020934F01029741F486E492E05D
:100DF0009F938F930E945D060F900F9023E042E037
:100E000063E082E00E94330989E392E09F938F932D
:100E10000E945D060F900F90C1E0D0E00FE112E05C
:100E200063E08C2F0E94C108009771F09F938F930D
:100E3000DF93CF931F930F930E945D060F900F9047
:100E40000F900F900F900F908FEF99EF20E081504F
:100E500090402040E1F700C000002196C031D1054C
:100E6000F9F6EEE3F1E08EE491E011928E179F0720
:100E7000E1F70E94FB100E946508809140028160AA
:100E8000809340028FE092E00E94C405569A5E98DB
:100E9000DF91CF911F910F9108958930910509F449
:100EA00082CF8D30910509F47ECF10924E0125E15D
:100EB00031E07ECF8D31910509F475CF40F4843156
:100EC000910509F470CF8931910579F76CCF843C95
:100ED000910509F468CF873C910509F464CF813C02
:100EE000910519F760CF1F93CF93DF93C091000155
:100EF000D09101018FEF9FEF90930101809300014A
:100F0000CF3FDC0709F06FC080913C0190913D011B
:100F10000E947B1E0C9730F410E0812FDF91CF915F
:100F20001F9108950E94631E90933D0180933C01A0
:100F300082E00E943009EC01892B09F054C08091B5
:100F40004F01882309F44FC087E00E9430090097C1
:100F500009F449C09C012F77332722303105D1F1A4
:100F600080F42115310581F12130310581F18CEFBB
:100F700091E09F938F930E945D060F900F9011E177
:100F8000CCCF2330310549F12F37310581F7292F97
:100F900033272F7733272130310509F447C0211536
:100FA0003105F1F02230310509F444C02330310518
:100FB00009F444C089EE91E09F938F930E945D06EF
:100FC0000F900F9010E1A9CF80788264E0CF8078F5
:100FD0008A64DDCF80788964DACF80788864D7CF5F
:100FE0009078EC01D2648091400281FF2BC0209761
:100FF00009F492CF85ED91E00E94C405DF93CF9371
:1010000080ED91E09F938F930E945D068EEC91E0BE
:101010000E94C4050F900F900F900F90CF37DC0700
:10102000A1F48FE70E94660611E077CF9078EC017B
:10103000DA64D9CF9078EC01D964D5CF9078EC01FF
:10104000D864D1CF209751F767CFCF3FDC0711F499
:101050008FEFE8CF2D2F3327822F1C2F2F3F79F4CE
:10106000DF93CF9380EB91E09F938F930E945D0677
:101070000E947F060F900F900F900F904ECF90918F
:101080004E01992349F0A9014F7755274233510565
:1010900079F42078822F8A600E9466061F3F21F231
:1010A0009C2F88278F6F9093010180930001BCCF04
:1010B0004A30510589F72078822F8263EDCFE82FDF
:1010C000F0E0E25CFE4F80810895682F609582E039
:1010D0000C946509849A83E091E00197F1F700C0D0
:1010E000000084989AEB9A95F1F700C00895849ACD
:1010F0008AEB8A95F1F700C0849883E091E001972C
:10110000F1F700C000000895EF92FF920F931F9334
:10111000CF93DF93D0E0C0E090E8E92EF12C082FC8
:1011200010E0C7010C2E02C0959587950A94E2F74E
:1011300080239123892B69F00E9477082196C8307B
:10114000D10579F7DF91CF911F910F91FF90EF902B
:1011500008950E946A08F2CF7C9B06C023E02A957E
:10116000F1F700000197C1F708957C9906C023E0CC
:101170002A95F1F700000197C1F708958C9884989B
:101180000895EF92FF920F931F93CF93DF93D82F81
:10119000C62FF894849A83EF9BE00197F1F700C083
:1011A00000000E94770820E1D29FC00111248C2BFF
:1011B0008C600E9484080E946A0884EF91E00E947B
:1011C000B508892B59F47894C2EEDFEFCE01DF9198
:1011D000CF911F910F91FF90EF90089584EF91E0D0
:1011E0000E94AC08EC01892B11F47894EFCF11E147
:1011F000D0E0C0E002E882E890E00E94B5087C01FF
:10120000882339F199270E94AC08882311F1CC0F6B
:10121000DD1F9E2D981B802F8E19891768F4C160E1
:10122000115049F78FE591E00E94B508892B51F4E0
:101230007894CBEEDFEFCACF113191F77894CCEEF2
:10124000DFEFC4CF8BE590E00E94AC08892B69F2F8
:10125000EFCF7894C12FD0E0D195C195D109B6CF09
:1012600060E00C94C1080F931F93CF93DF93D82FA6
:10127000C62F042F122FF894849A83EF9BE00197D6
:10128000F1F700C000000E94770820E1D29FC00162
:1012900011248C2B88600E9484080E946A088FE1C8
:1012A00093E00197F1F700C000000E947708802FBB
:1012B0000E948408812F0E9484080E946A08789402
:1012C000DF91CF911F910F910895262F277040E055
:1012D00062E00C94330980915C0108959FB7F89403
:1012E000109253019FBF90915502943009F049C06C
:1012F0002091E9002F709091EC0090FD30C090E0BB
:10130000922B24E02093E9002091EB0020FF36C0CF
:101310002091EE0027FF32C020915001222321F0BE
:101320002091E80025FF2AC01092500126E030915C
:10133000E80035FF16C08093F1008091E80085FD3C
:1013400029C08091E80080FFFCCF8091E8008E7773
:101350008093E8009F709093E90080E0089590E802
:10136000CFCF30915502343049F43091EB0035FD48
:1013700005C0215041F481E0809350019F7090930B
:10138000E9008FEF0895EFE9FFE03197F1F700C032
:101390000000CDCF8FB7F89421E0209353018FBF89
:1013A000D9CFCF93DF9300D00F92CDB7DEB79C019A
:1013B00080915502843019F593E099833B832A8309
:1013C0009093E9008FEF9091E800815095FD06C061
:1013D00095ED9A95F1F700008111F5CF8091E80025
:1013E00085FF0DC050E040E063E070E0CE01019663
:1013F0000E94920C8091E8008E778093E8000F9015
:101400000F900F90DF91CF910895CF93DF9300D08D
:101410000F92CDB7DEB720915502243021F522E09E
:1014200029839B838A8383E08093E9008FEF9091E7
:10143000E800815095FD06C095ED9A95F1F7000002
:101440008111F5CF8091E80085FF0DC050E040E0AC
:1014500063E070E0CE0101960E94920C8091E8005A
:101460008E778093E8000F900F900F90DF91CF91CF
:1014700008959C01809155028430F9F482E08093B4
:10148000E9009FEF8091E800915085FD06C085ED51
:101490008A95F1F700009111F5CF8091E80085FF62
:1014A0000CC050E040E065E070E0C9010E94920C81
:1014B0008091E8008E778093E8000895CF93DF93C2
:1014C000EC0180915502843039F581E08093E90088
:1014D0008FEF9091E800815095FD06C095ED9A95AB
:1014E000F1F700008111F5CF8091E80085FF14C06D
:1014F00050E040E068E070E0CE010E94920C8091E4
:10150000E8008E778093E80088E0FE01A4E5B1E072
:1015100001900D928A95E1F7DF91CF91089583EDC7
:1015200092E00E94C40580915402811109C00E947A
:10153000200E0E947D0E8091E20084608093E20084
:1015400008958FEC92E00E94C40510925402089511
:101550000895209151012F5F822F62E30E94452759
:10156000992319F02093510108951092510180910F
:1015700053018823E9F0809155028430B9F49091A9
:10158000E9009F708091EC0080FD13C080E0892B02
:1015900094E09093E9009091EB0090FF04C090914B
:1015A000EE0097FD0AC08F708093E90010925301FE
:1015B000089580E8ECCF1092F1009091E80095FD3D
:1015C000FACF9091E80090FFEECF9091E8009E77DF
:1015D0009093E800E8CF42E061EC81E00E949E0D2C
:1015E00042E061EC82E00E949E0D42E061EC83E00B
:1015F0000E949E0D42E261EC84E00C949E0D80916D
:101600005702833009F452C030F4813059F18230EE
:1016100009F48EC008958A3009F47AC08B3009F439
:1016200060C0893009F041C0809156028132E9F5ED
:1016300080915A0290915B02892BB9F58091E80064
:10164000877F8093E8008091E80082FF2AC0809124
:10165000F10080935C018091E8008B778093E80033
:101660000C94D20D80915602813AF9F48091E800F1
:10167000877F8093E80080915A0290915B02892BCA
:1016800061F468E084E591E070E00E94E10C8091F3
:10169000E8008B778093E800089560E090E080E0B8
:1016A000F3CF809155028111CECF089580915602DB
:1016B000813AD9F780915A0290915B02892BA9F760
:1016C0008091E800877F8093E8008091E80080FFA8
:1016D000FCCF80910C018093F1008091E8008E771F
:1016E000BDCF80915602813201F780915A029091CC
:1016F0005B02892BD1F68091E800877F8093E80018
:101700000E94D20D8091580280930C010C946E17A8
:1017100080915602813249F68091E800877F80935C
:10172000E8000E94D20D8091590280935D010895D6
:1017300080915602813A09F0B8CF8091E800877F06
:101740008093E8008091E80080FFFCCF80915D01EC
:10175000C2CF0895089580915C0180935201109248
:101760005C0180E00E9465080E946B120C946E1769
:101770000C94AB0B0E94F21D80915302882329F038
:101780000E941B1E81110C947C0C089584B7877FE6
:1017900084BF0FB6F894A89580916000886180930B
:1017A0006000109260000FBE80E890E00FB6F894E1
:1017B00080936100909361000FBE8EE699E00E94D5
:1017C000C11D87EC92E00E94C4050E94A90B0E94F3
:1017D000B8110E94200E0E947D0E8091E20084606C
:1017E0008093E2007894809155028430E1F781ED96
:1017F00097E00197B9F486EB92E00E94C4050E943D
:10180000BA1182E091E00E94F61085EA92E00E940F
:10181000C4050E94AA0B80915502853051F00E94A8
:10182000BE11F9CFEFE9FFE03197F1F700C00000FA
:10183000E0CF0E94BA0BEFCF0E942F1E8091520181
:1018400080935C0108950C941C0C292F33272330BE
:10185000310521F168F42130310509F443C022300B
:10186000310509F444C090E080E030E020E026C07B
:101870002132310551F122323105A9F7643098F750
:1018800070E0FB01EE0FFF1FE05EFE4F2081318113
:10189000645E7E4FFB01808190E010C0992781300B
:1018A000910581F0009729F00297E9F6E7EDF2E063
:1018B00002C0E7E1F3E0849190E09F01FA013183F7
:1018C00020830895E7E0F3E0F6CF643060F6E62F7A
:1018D000F0E0EE0FFF1FE85DFE4F2081318189E0CF
:1018E00090E0ECCF82E190E02FE833E0E7CF84E7AF
:1018F00090E02BE133E0E2CF80E189BD82E189BD58
:1019000009B400FEFDCF8091D8008F7D8093D80070
:101910008091E00082608093E0008091E00081FD92
:10192000FCCF0895AF92BF92CF92DF92FF920F93B8
:101930001F93CF93DF936C01EB018A010E94F10D9D
:10194000F82E811123C00115110539F0F8018081AD
:101950009181C81BD90BC80ED91EB12CA12C209780
:10196000A9F08091E80085FD22C08091E8008E7783
:101970008093E80001151105A1F0F80180819181A3
:10198000A80EB91EB182A08285E0F82E8F2DDF91BE
:10199000CF911F910F91FF90DF90CF90BF90AF90AC
:1019A00008950E94F10D8823D1F2F82EEFCFF601B1
:1019B00081916F018093F1002197FFEFAF1ABF0A69
:1019C000CECFFC0180915C0290915D028617970753
:1019D000A0F06115710529F49091E8009E7790932D
:1019E000E80090E06115710551F4911108C08091F3
:1019F000E80082FF34C080E00895BC01F2CF8091FE
:101A000055028823C1F18530C1F18091E80083FD42
:101A100030C08091E80082FDEACF8091E80080FF2D
:101A2000E1CF8091F3002091F200382F611571050C
:101A300019F02830310558F091E02830310509F0CF
:101A400090E02091E8002E772093E800CBCF8191A1
:101A50008093F100615071092F5F3F4FE7CF809174
:101A60005502882341F0853041F08091E80083FFE2
:101A7000BECF81E0089582E0089583E00895FC01DF
:101A800080915C0290915D0286179707A0F0611526
:101A9000710529F48091E8008E778093E80090E04A
:101AA0006115710551F4911108C08091E80082FF21
:101AB00035C080E00895BC01F2CF809155028823A3
:101AC000C9F18530C9F18091E80083FD31C0809172
:101AD000E80082FDEACF8091E80080FFE1CF8091AD
:101AE000F3002091F200382F6115710519F02830AC
:101AF000310558F091E02830310509F090E08091EF
:101B0000E8008E778093E800CBCF84918093F1003A
:101B10003196615071092F5F3F4FE6CF809155029A
:101B2000882341F0853041F08091E80083FFBDCFEC
:101B300081E0089582E0089583E00895982F97301A
:101B400028F08F708093E90081E008959093E90078
:101B5000242F762F50E0981731F07091EC002091EF
:101B6000ED005091F00021FD02C09F5FE8CF309161
:101B7000EB003E7F3093EB003091ED003D7F3093E2
:101B8000ED003091EB0031603093EB007093EC008E
:101B90002093ED005093F0002091EE0027FDE5CF5B
:101BA00080E008958091560287FF13C08091E8007D
:101BB00082FF06C08091E8008B778093E80004C024
:101BC000809155028111F2CF0895809155028823AA
:101BD000D9F38091E80080FFF8CF8091E8008E77FC
:101BE000ECCF2091E4003091E50085E6A9019091C9
:101BF000EC0090FF06C09091E80090FF06C080E0E6
:101C000008959091E80092FDFACF909155029923A2
:101C100089F0953089F09091EB0095FD0FC02091EF
:101C2000E4003091E5004217530709F38150F1F6C3
:101C300084E0089582E0089583E0089581E00895A6
:101C40000E948E0E0E94960EE0EEF0E08081816090
:101C50008083E8EDF0E080818F77808319BCA7ED69
:101C6000B0E08C918E7F8C9380818F7E80831092E8
:101C7000540208950F931F93CF93DF930E948E0E0B
:101C80000E94960EC8EDD0E088818F778883888186
:101C90008068888388818F7D888319BC1092550263
:101CA00010925102109253021092520200EE10E074
:101CB000F80180818B7F808388818160888342E006
:101CC00060E080E00E949E0DE1EEF0E080818E7F7A
:101CD0008083E2EEF0E08081816080838081886093
:101CE0008083F80180818E7F8083888180618883F2
:101CF000DF91CF911F910F910895E8EDF0E0808181
:101D00008F7E8083E7EDF0E080818160808384E0D6
:101D100082BF81E0809354020C943A0EE8EDF0E02B
:101D200080818E7F80831092E20008951092DA0005
:101D30001092E10008951F920F920FB60F92112496
:101D40002F933F934F935F936F937F938F939F93C3
:101D5000AF93BF93EF93FF938091E10082FF0BC09D
:101D60008091E20082FF07C08091E1008B7F809329
:101D7000E1000E94A90A8091DA0080FF19C08091D9
:101D8000D80080FF15C08091DA008E7F8093DA0042
:101D90008091D90080FF94C080E189BD82E189BD36
:101DA00009B400FEFDCF81E0809355020E948F0AA6
:101DB0008091E10080FF19C08091E20080FF15C092
:101DC0008091E2008E7F8093E2008091E20080614A
:101DD0008093E2008091D80080628093D80019BC83
:101DE00085E0809355020E94B80B8091E10084FF4A
:101DF00029C08091E20084FF25C080E189BD82E195
:101E000089BD09B400FEFDCF8091D8008F7D8093FD
:101E1000D8008091E1008F7E8093E1008091E20004
:101E20008F7E8093E2008091E20081608093E200E7
:101E300080915102882309F449C084E080935502BF
:101E40000E94230C8091E10083FF29C08091E20071
:101E500083FF25C08091E100877F8093E10082E0CD
:101E600080935502109251028091E1008E7F809301
:101E7000E1008091E2008E7F8093E2008091E20099
:101E800080618093E20042E060E080E00E949E0D6D
:101E90008091F00088608093F0000E94A80AFF9172
:101EA000EF91BF91AF919F918F917F916F915F91D2
:101EB0004F913F912F910F900FBE0F901F9018954B
:101EC00019BC109255020E94A10A72CF8091E300C2
:101ED00087FD02C081E0B2CF83E0B0CF1F920F92A6
:101EE0000FB60F9211242F933F934F935F936F93ED
:101EF0007F938F939F93AF93BF93CF93EF93FF9372
:101F0000C091E900CF708091EC001092E9008091BF
:101F1000F000877F8093F00078940E94AA0F1092BF
:101F2000E9008091F00088608093F000C093E900A0
:101F3000FF91EF91CF91BF91AF919F918F917F9141
:101F40006F915F914F913F912F910F900FBE0F9026
:101F50001F9018951F93CF93DF93CDB7DEB7AA9745
:101F60000FB6F894DEBF0FBECDBF86E592E020919C
:101F7000F100FC012193CF01F2E08E359F07B9F704
:101F80000E94FF0A8091E80083FF82C08091560280
:101F9000909157029A3008F07BC0E92FF0E0EF579C
:101FA000F84D0C946527803881F0823809F070C0B4
:101FB00080915A028F708093E9008091EB0085FB3D
:101FC000882780F91092E90006C080915202909112
:101FD0005302911182609091E800977F9093E800FE
:101FE0008093F1001092F1008091E8008E77F9C0A3
:101FF000882309F4E6C0823009F04AC08091580273
:102000008111EAC080915A028F7009F441C0809317
:10201000E9002091EB0020FFDFC0933031F4809184
:10202000EB0080628093EB00D7C09091EB00906151
:102030009093EB0021E030E001C0220F8A95EAF78F
:102040002093EA001092EA008091EB008860EACFCA
:1020500081111EC0109158021F778091E300807893
:10206000812B8093E3008091E800877F8093E800D4
:102070000E94D20D8091E80080FFFCCF8091E300A8
:1020800080688093E30082E0111183E08093550221
:102090008091E80083FF0AC08091E800877F8093E9
:1020A000E8008091EB0080628093EB00AA960FB667
:1020B000F894DEBF0FBECDBFDF91CF911F91089581
:1020C0008058823028F780915802909159028C3DB7
:1020D00023E09207A1F583E08A838AE289834FB7E0
:1020E000F894DE01139620E03EE051E2E32FF0E0A9
:1020F00050935700E49120FF03C0E295EF703F5FDB
:10210000EF708E2F90E0EA30C0F0C7968D939D93CC
:102110002F5F243159F74FBF8091E800877F80936C
:10212000E8006AE270E0CE0101960E94E10C809125
:10213000E8008B778093E800ABCFC096E7CFAE0185
:102140004F5F5F4F60915A020E94250CBC01892BA2
:1021500009F49ECF9091E800977F9093E8008981E1
:102160009A810E943F0DE3CF803809F091CF809192
:10217000E800877F8093E800809151028093F1000E
:1021800033CF811185CF90915802923008F080CFE3
:102190008091E800877F8093E800909351020E942D
:1021A000D20D80915102882311F084E005C0809106
:1021B000E30087FDFACF81E0809355020E94EB0A8D
:1021C00067CF80915802813009F062CF81E093306F
:1021D00009F080E0809353021092E9008091E800BA
:1021E000877F8093E8000E94D20D52CF90936301C5
:1021F000809362010895E0916201F091630130974C
:1022000021F00190F081E02D099480E00895EF9293
:10221000FF920F931F93CF93DF938C01E0916201A4
:10222000F09163013097C1F10280F381E02D0995AF
:102230008091400282FF30C080FF04C08CEA94E0AD
:102240000E94C405D0E0C0E086EAE82E84E0F82EC3
:102250008091400280FF0EC0F801EC0FFD1F8081CD
:102260001F928F93FF92EF920E945D060F900F9046
:102270000F900F902196C830D10551F78091400200
:1022800080FF0AC084EA94E0DF91CF911F910F9103
:10229000FF90EF900C94C405DF91CF911F910F91A7
:1022A000FF90EF900895E0916201F0916301309703
:1022B00021F00480F581E02D09940895CF93DF93F8
:1022C000EC0180916001909161018C179D0701F1F3
:1022D000D0936101C0936001E0916201F0916301CC
:1022E0003097B1F00680F781E02DCE0109958091FD
:1022F00040028570853061F4DF93CF9386E994E0E6
:102300009F938F930E945D060F900F900F900F90F8
:10231000DF91CF910895CF93DF93EC0180915E011F
:1023200090915F018C179D0701F1D0935F01C093DD
:102330005E01E0916201F09163013097B1F0008499
:10234000F185E02DCE0109958091400285708530A0
:1023500061F4DF93CF9386E894E09F938F930E947C
:102360005D060F900F900F900F90DF91CF91089521
:102370000C946C120E945A1E0C947F069F92AF928E
:10238000BF92CF92DF92EF92FF920F931F93CF9362
:10239000DF9300D000D00F92CDB7DEB70E94730755
:1023A00085E6C82E81E0D82E10E0812F0E945F08BC
:1023B000982EF601E1906F01E81699F180914002A4
:1023C00081FD0E948112F12C01E0E9245601F1E027
:1023D000AF1AB1088E2D8023F9F0F9821A8391E0AB
:1023E000892D802309F490E09B830E94631E816005
:1023F000782F9D838C8349815A816B818D810E94C6
:10240000B71249815A816B817C818D810E94DF1DC9
:10241000F501808180278083F394000FF8E0FF129C
:10242000D9CF1F5F103109F0C0CF8FEF89838A8326
:102430001B820E94631E8160782F9D838C8349815B
:102440005A816B818D810E94B7120E94DE1D0E940D
:10245000C8210E94FB1090916401891749F10E94E4
:10246000FB1080936401909140029570953061F467
:102470001F928F9387EB94E09F938F930E945D064A
:102480000F900F900F900F90809164010F900F901C
:102490000F900F900F90DF91CF911F910F91FF90B0
:1024A000EF90DF90CF90BF90AF909F900C94F01D75
:1024B0000F900F900F900F900F90DF91CF911F9181
:1024C0000F91FF90EF90DF90CF90BF90AF909F90D3
:1024D00008950C94650808950895CF93C62F0E941F
:1024E0005F0821E030E002C0220F331FCA95E2F7F7
:1024F00090E02823392381E0232B09F480E0CF9159
:102500000895EF92FF920F931F93CF93DF9380ED87
:1025100094E00E94C405D0E0C0E087E1E82E81E0AD
:10252000F82E02EC14E08C2F0E945F080E94C61D5A
:10253000FF92EF921F928F93DF93CF931F930F938E
:102540000E945D0621968DB79EB708960FB6F89447
:102550009EBF0FBE8DBFC031D10529F7DF91CF914E
:102560001F910F91FF90EF90089508950895CF93D4
:10257000DF93CDB7DEB72B970FB6F894DEBF0FBE53
:10258000CDBF4F83588769877A878B878A859B85DC
:10259000892B21F0852F84238F3FD9F41E821D8241
:1025A00085E0FE013796DE01119601900D928A9525
:1025B000E1F749815A816B817C818D819E812B96C7
:1025C0000FB6F894DEBF0FBECDBFDF91CF910C9454
:1025D000381A69857A858B850E94DF1DDFCFCF93FE
:1025E000C82F882309F4D4C08238C1F40E94FB109C
:1025F00081FDCEC089E30E94221D0E949B1D2FEF0A
:1026000081EE94E0215080409040E1F700C000004E
:1026100089E30E943F1DCF910C949B1D8338A1F448
:102620000E94FB1080FDB4C083E50E94221D0E9421
:102630009B1D2FEF81EE94E0215080409040E1F708
:1026400000C0000083E5E5CF8438A1F40E94FB10B0
:1026500082FD9EC087E40E94221D0E949B1D2FEFD9
:1026600081EE94E0215080409040E1F700C00000EE
:1026700087E4CFCF8CEF8C0F813A48F48C2F0E94E7
:10268000CA24811185C08C2F0E94221DC4CF80E2F4
:102690008C0F883048F4C77081E001C0880FCA955C
:1026A000EAF70E94621DB7CF8BE58C0F833068F488
:1026B00081E890E0C53A31F083E890E0C63A11F441
:1026C00082E890E0CF910C945E1188E58C0F853103
:1026D00008F05EC082EE90E0C83A09F456C089EE78
:1026E00090E0C93A09F451C08AEE90E0CA3A09F480
:1026F0004CC085EB90E0CB3A09F447C086EB90E004
:10270000CC3A09F442C083EB90E0CD3AF1F184EB8E
:1027100090E0CE3AD1F187EB90E0CF3AB1F18CEC7A
:1027200090E0C13B91F18DEC90E0C03B71F183E80A
:1027300091E0C23B51F18AE891E0C33B31F182E97B
:1027400091E0C43B11F184E991E0C53BF1F081E2F5
:1027500092E0C63BD1F083E292E0C73BB1F084E265
:1027600092E0C83B91F085E292E0C93B71F086E2CD
:1027700092E0CA3B51F087E292E0CB3B31F090E02F
:1027800080E0CC3B11F48AE292E0CF910C948B1163
:10279000CF910895882309F466C08238B9F40E9465
:1027A000FB1081FF60C089E30E94221D0E949B1DD7
:1027B0002FEF81EE94E0215080409040E1F700C07F
:1027C000000089E30E943F1D0C949B1D8338A1F4F7
:1027D0000E94FB1080FF47C083E50E94221D0E94DB
:1027E0009B1D2FEF81EE94E0215080409040E1F757
:1027F00000C0000083E5E6CF8438A1F40E94FB10FE
:1028000082FF31C087E40E94221D0E949B1D2FEF92
:1028100081EE94E0215080409040E1F700C000003C
:1028200087E4D0CF9CEF980F913A60F290E2980F36
:10283000983050F4877091E001C0990F8A95EAF7BB
:10284000892F0E94681DC0CF9BE5980F933020F41C
:1028500090E080E00C945E11885A853120F490E07D
:1028600080E00C948B110895882321F00E94621D52
:102870000C949B1D0895882321F00E94681D0C94E0
:102880009B1D0895AF92BF92CF92DF92EF92FF927D
:102890000F931F93CF93DF9300D000D00F92CDB74B
:1028A000DEB75C0185E0F501DE01119601900D9225
:1028B0008A95E1F7F50183819481009739F0408191
:1028C0005181252F24232F3F09F0DDC20F900F9057
:1028D0000F900F900F90DF91CF911F910F91FF906C
:1028E000EF90DF90CF90BF90AF900895F12FFF70E1
:1028F000EF2E107F19F0E29440EFE422FF20C9F0A0
:10290000EE2029F08E2D0E94751D0E949B1D802FA8
:102910000F900F900F900F900F90DF91CF911F911C
:102920000F91FF90EF90DF90CF90BF90AF900C94FD
:10293000EF12802F0E94CA13EE2041F28E2D0E94CA
:102940007B1D0F900F900F900F900F90DF91CF9104
:102950001F910F91FF90EF90DF90CF90BF90AF90BD
:102960000C949B1D812F8F70D82E107F103219F080
:10297000D29430EFD322002379F0013009F452C011
:10298000FF2009F460C0EE2059F0F501858180FF39
:10299000BECF8F70858304C0FF2049F1E11012C0C3
:1029A0008D2D0F900F900F900F900F90DF91CF9182
:1029B0001F910F91FF90EF90DF90CF90BF90AF905D
:1029C0000C943414E1E08D2DEE12EBCF0F900F90AC
:1029D0000F900F900F90DF91CF911F910F91FF906B
:1029E000EF90DF90CF90BF90AF900C94851DE110D9
:1029F00014C00E94881D8D2D0F900F900F900F9086
:102A00000F90DF91CF911F910F91FF90EF90DF908A
:102A1000CF90BF90AF900C943B14F1E0EF1609F407
:102A200055CFE7CFFF2051F085E08E1508F44ECF4B
:102A30000E945F1D8D2109F4B3CFDDCFE4E0EE15D8
:102A400008F444CFD8CFEE20B1F2802F0F900F9032
:102A50000F900F900F90DF91CF911F910F91FF90EA
:102A6000EF90DF90CF90BF90AF900C94CA13812F5E
:102A7000869586958370D1F0813009F027CFC80103
:102A80009370F11002C090E080E00F900F900F90D3
:102A90000F900F90DF91CF911F910F91FF90EF90CA
:102AA000DF90CF90BF90AF900C948B11C8019370C2
:102AB000F11002C090E080E00F900F900F900F9007
:102AC0000F90DF91CF911F910F91FF90EF90DF90CA
:102AD000CF90BF90AF900C945E11802FFF2099F0A3
:102AE0000E9454200F900F900F900F900F90DF9145
:102AF000CF911F910F91FF90EF90DF90CF90BF90FB
:102B0000AF900C943B210E94BC20ECCF812F8370AE
:102B100009F071C0F110DACE202F2295269527708A
:102B2000220F220F602F6F70C62ED12CF12CE12CBA
:102B3000022E04C0CC0CDD1CEE1CFF1C0A94D2F744
:102B400060E070E0CB0104FF0FC06FE070E080E058
:102B500090E004C0660F771F881F991F2A95D2F74F
:102B60006095709580959095169516951370123016
:102B7000C1F060F56C297D298E299F29113051F112
:102B80000F900F900F900F900F90DF91CF911F91AA
:102B90000F91FF90EF90DF90CF90BF90AF900C948B
:102BA000961B6C297D298E299F290F900F900F90DD
:102BB0000F900F90DF91CF911F910F91FF90EF90A9
:102BC000DF90CF90BF90AF900C94B01B0E94961BEB
:102BD000C701B6010F900F900F900F900F90DF91EB
:102BE000CF911F910F91FF90EF90DF90CF90BF900A
:102BF000AF900C947C1B8695FF2011F0812F817083
:102C0000882309F463CE202F229526952770220F62
:102C1000220F602F6F70C62ED12CF12CE12C022ECA
:102C200004C0CC0CDD1CEE1CFF1C0A94D2F760E043
:102C300070E0CB0104FF0FC06FE070E080E090E037
:102C400004C0660F771F881F991F2A95D2F76095D9
:102C50007095809590951695169513701230C1F069
:102C600060F56C297D298E299F29113051F10F9033
:102C70000F900F900F900F90DF91CF911F910F91B8
:102C8000FF90EF90DF90CF90BF90AF900C945B1CC3
:102C90006C297D298E299F290F900F900F900F90FE
:102CA0000F90DF91CF911F910F91FF90EF90DF90E8
:102CB000CF90BF90AF900C946D1C0E945B1CC7011D
:102CC000B6010F900F900F900F900F90DF91CF9162
:102CD0001F910F91FF90EF90DF90CF90BF90AF903A
:102CE0000C94491C003F09F444C060F480E4800F58
:102CF000803228F1FF2009F495C0E11008CE812F21
:102D00008F7159C0023F09F467C008F450C0033FF7
:102D100089F7FF2009F475C0812F8F710F900F90F4
:102D20000F900F900F90DF91CF911F910F91FF9017
:102D3000EF90DF90CF90BF90AF900C94CF1B812F7E
:102D40008F71102F1071FF2051F00E94E41B802F13
:102D50008295807F111125CE802F8F7022CE0E9408
:102D6000051C802F8295807F111146CE802F8F7099
:102D700043CEFF20B9F0F4E0FE1508F4A7CD812F73
:102D80008F710F900F900F900F900F90DF91CF9158
:102D90001F910F91FF90EF90DF90CF90BF90AF9079
:102DA0000C94281C85E08E1508F490CDE8CF812F77
:102DB0008F71FF20A9F00F900F900F900F900F9040
:102DC000DF91CF911F910F91FF90EF90DF90CF9007
:102DD000BF90AF900C94E41B812F8F71FF2059F3AB
:102DE0000F900F900F900F900F90DF91CF911F9148
:102DF0000F91FF90EF90DF90CF90BF90AF900C9429
:102E0000051C0F900F900F900F900F90DF91CF91B6
:102E10001F910F91FF90EF90DF90CF90BF90AF90F8
:102E20000C94CA1BE11011CE812F8F71D9CF412F85
:102E30004F70602FC5010E94EA1E0F900F900F90F7
:102E40000F900F90DF91CF911F910F91FF90EF9016
:102E5000DF90CF90BF90AF900C94D21A412F4F705B
:102E6000602FC5010F900F900F900F900F90DF9182
:102E7000CF911F910F91FF90EF90DF90CF90BF9077
:102E8000AF900C94ED1EF280E580E2942FE0E222F8
:102E9000782F9D838C836F2D8D810E94801C8C01E7
:102EA0000E947F1C0E94711BE12FE295EF70F0E001
:102EB000E557F84D0C9465270E94821D0E94511D14
:102EC0000E949B1D0E9469220E943B2190E080E0AD
:102ED0000E945E1190E080E00C948B110E94721DA4
:102EE0000C945C17CF93DF9300D000D00F92CDB736
:102EF000DEB76B837C838D838C819D81892B21F050
:102F0000842F85238F3F89F480E02EC090E2980FB4
:102F1000983008F1883E30F4803EE8F48450813ADD
:102F200098F719C0803F81F716C06B817C818D8135
:102F30000E94801C292F22952F702C3070F42A308B
:102F400048F722502F702230F8F6853AF8F6843090
:102F500010F48230F8F681E007C02C3011F02F30E9
:102F600099F693FB882780F90F900F900F900F90A0
:102F70000F90DF91CF910895CF93DF9300D000D0D1
:102F80000F92CDB7DEB70F900F900F900F900F906C
:102F9000DF91CF910895CF93DF9300D000D000D080
:102FA000CDB7DEB726960FB6F894DEBF0FBECDBF05
:102FB000DF91CF9108951F93CF93DF93C091750157
:102FC00016E0809176018C1304C0DF91CF911F91A0
:102FD0000895D0E01C9FF0011D9FF00D1124E958C9
:102FE000FE4F4081518162817381848195810E946D
:102FF000CB172196C770E5CF4091A7015091A8014A
:103000006091A9017091AA018091AB019091AC01EE
:103010000C94CB171F93CF93DF938091AC01807FEB
:10302000C1F48091A9018823A1F080917501C0911C
:1030300076016091A7017091A8014091AA01509179
:10304000AB01D62FD723DA01A095B09516E0C813AF
:1030500004C0DF91CF911F91089590E04115510573
:1030600011F0DF3F31F401968770F1CF2A0F3B1F3B
:1030700017C0189FF001199FF00D1124E958FE4F59
:1030800021812713F0CF20812613EDCF228121113A
:10309000EACF238134812417350740F3241B350BF5
:1030A000283C310500F72091AC012F70206120935E
:1030B000AC0126E0289FF001299FF00D1124E4586F
:1030C000FE4F80818F708061808387EA91E00E944B
:1030D0004214DF91CF911F910C94DB17BF92CF92D6
:1030E000DF92EF92FF920F931F93CF93DF93CDB7B1
:1030F000DEB761970FB6F894DEBF0FBECDBF6C018F
:1031000085E0F601DE011D9601900D928A95E1F7AA
:10311000D6014C9111965C9111971296FC901297E2
:1031200013960D911C918091AA019091AB0100978B
:1031300009F489C12091A7013091A801622F63236E
:103140006F3F09F480C1B090A901BB2009F41AC1F6
:1031500008171907D0F1F801E81BF90BCF01EE248D
:10316000E394883C910508F0E12C8091AC01982F04
:10317000907FEE2009F4BCC0911181C0EF2C351373
:1031800029C0241327C0F11025C08F70806180935F
:10319000AC010E94FC1787EA91E00E9442148091E2
:1031A000AC01D60115968C938E2D61960FB6F894CE
:1031B000DEBF0FBECDBFDF91CF911F910F91FF906A
:1031C000EF90DF90CF90BF90089580959095800FFD
:1031D000911FC5CF0115110529F0852F84238F3F3D
:1031E00009F043C180E0B82FB170BB2E80FF3DC015
:1031F000809175012091760136E0821316C0702F00
:10320000198B088B6F2D89890E94801C292F22958C
:103210002F702230F0F0243018F59F70F1F0F60195
:103220009581907FD1F4B12C1EC090E0389FF001C1
:10323000399FF00D1124E958FE4F6181651306C0D6
:103240006081641303C06281F6120FC0019687701B
:10325000D4CF9F7011F0882331F3805E883018F34B
:10326000C6010E944214EB2C9FCFFF2009F49CCF93
:103270008091AC0181608093AC01E12C95CF351336
:1032800006C0241304C0D601FF2009F4A1C04D8755
:103290005E87FF86702F198B088B6F2D89890E949E
:1032A0007217882309F4DDC0FF2009F4DAC0809189
:1032B000AC01803270F02091A7013091A8013887CD
:1032C0002F8319861B870A878C87CE0107960E9459
:1032D000421486E0F601A7EAB1E001900D928A95CA
:1032E000E1F70E940A180E94FC17EE24E3945CCFD9
:1032F000911113C0702F198B088B6F2D89890E9433
:10330000BC1787EA91E00E94421486E0E7EAF1E008
:10331000DF011D928A95E9F768C0351311C02413A7
:103320000FC0F1100DC0F6018583C6010E94421442
:10333000E7EAF1E086E0DF011D928A95E9F793CF95
:103340004D875E87FF86702F198B088B6F2D8989BB
:103350000E947217882309F484C0FF2009F481C0F9
:103360008091AC01803208F4B4CF2091A701309154
:10337000A8013A8329831B821D830C838E83CE018F
:103380000196A5CF0817190798F1F801E81BF90B6A
:10339000CF01E12C883C910508F04DC0EF2CFF20B7
:1033A00009F45FC0351332C0241330C08091AC01E2
:1033B00080FD23C0982F907F01F1D60115968C9344
:1033C0001597903F39F0982F907F905F8F70892BE1
:1033D00015968C93C6010E94421486E0F601A7EA76
:1033E000B1E001900D928A95E1F70E94FC17DCCEC6
:1033F00080959095800F911FCCCF86E0F601A7EACB
:10340000B1E001900D928A95E1F7CECE4D875E87AF
:10341000FF86702F198B088B6F2D89890E94721778
:10342000811157CF8091AC0181608093AC01C601BE
:103430000E944214B9CE702F198B088B6F2D898989
:103440000E94BC1762CFFF2061F04D875E87FF8628
:10345000702F198B088B6F2D89890E94721781112B
:1034600038CFC6010E94421440CF81E08F25BBCEE9
:103470001F93CF93DF93CDB7DEB72C970FB6F89499
:10348000DEBF0FBECDBF4F83588769877A878B8792
:103490009C87CE0107960E946E18882369F08A8562
:1034A0009B85892B39F04F815885842F85238F3F49
:1034B00009F071C016E05FC086E0FE013796DE01BC
:1034C000119601900D928A95E1F78A859B85892B4B
:1034D00089F388859F8189238F3F61F3209176014D
:1034E00030E0C9010196877099274091750148170E
:1034F000190671F40E946E171092760110927501F0
:1035000086E0E7EAF1E0DF011D928A95E9F7D2CF84
:1035100096E0929FD001939FB00D1124A958BE4F01
:10352000FE01319601900D929A95E1F78093760114
:103530000E94DB17BFCF819FC001112489589E4F85
:103540000E946E188823E9F0E09175011E9FF0013A
:103550001124E958FE4F4081518162817381848139
:1035600095810E94CB178091750190E0019687703C
:103570009927809375018091750190917601891347
:10358000DACF2C960FB6F894DEBF0FBECDBFDF9119
:10359000CF911F91089569857A858B859C850E94BE
:1035A000CB1788CFDF92EF92FF920F931F93CF93A9
:1035B000DF938C01892BB9F0E12CF12CDD24D3941D
:1035C000E8012196F8018491853709F46AC098F4DE
:1035D000843708F059C0843008F06FC0813011F191
:1035E000823009F43CC0DF91CF911F910F91FF9081
:1035F000EF90DF900895883709F45CC058F486375F
:1036000009F454C0873779F78E2D0E946F1D0E94F0
:103610009B1D1FC09CE7980F903728F78F770E945B
:10362000CA1317C00E5F1F4FFE01849190E2980FDE
:10363000983060F48770FD2D01C0FF0F8A95EAF77E
:103640008F2F0E94751D0E949B1D02C00E94EF12C9
:10365000E8018F2D815008F033C08E01B1CF0E5F8D
:103660001F4FFE01849190E2980F983050F48770BC
:10367000FD2D01C0FF0F8A95EAF78F2F0E947B1D59
:10368000E2CF0E94CA13E4CF0E5F1F4FFE01C49128
:10369000C150F0F28FE99FE00197F1F700C0000000
:1036A000F7CF0E5F1F4FFE01F490D2CF0E945F1D37
:1036B000E82ECFCF0E94721DAACF0E94EF12C9CF71
:1036C000EFE9FFE03197F1F700C00000C3CF60934E
:1036D0002D0270932E0280932F02909330020C944F
:1036E000EF1D08956093310270933202809333028C
:1036F000909334020C94EE1D0F931F9300913102AE
:10370000109132022091330230913402602B712BE0
:10371000822B932B60933102709332028093330299
:10372000909334021F910F910C94EE1D0F931F93F1
:103730000091310210913202209133023091340213
:1037400060237123822393236093310270933202AA
:1037500080933302909334021F910F910C94EE1DCD
:103760000F931F9300913102109132022091330286
:1037700030913402602771278227932760933102AA
:103780007093320280933302909334021F910F9111
:103790000C94EE1D60E070E0CB010C94671B0F935E
:1037A0001F9341E050E060E070E08A019B0104C09B
:1037B000000F111F221F331F8A95D2F7C901B801CC
:1037C0001F910F910C94671B0F931F9341E050E0E2
:1037D00060E070E004C0440F551F661F771F8A9594
:1037E000D2F780912D0290912E02A0912F02B091DC
:1037F00030028A019B01082B192B2A2B3B2BC90174
:10380000B8011F910F910C94671B0F931F9341E018
:1038100050E060E070E004C0440F551F661F771F42
:103820008A95D2F7CB01BA016095709580959095F5
:1038300000912D0210912E0220912F023091300222
:1038400060237123822393231F910F910C94671B94
:103850000F931F9341E050E060E070E004C0440F1C
:10386000551F661F771F8A95D2F780912D02909180
:103870002E02A0912F02B09130028A019B010827ED
:1038800019272A273B27C901B8011F910F910C94D2
:10389000671B0F931F9300912D0210912E02209110
:1038A0002F0230913002602B712B822B932B1F91B2
:1038B0000F910C94671B0F931F9300912D02109191
:1038C0002E0220912F023091300260237123822337
:1038D00093231F910F910C94671B0F931F930091DB
:1038E0002D0210912E0220912F023091300260277C
:1038F0007127822793271F910F910C94671B0895BE
:103900004F925F926F927F929F92AF92BF92CF92AF
:10391000DF92EF92FF920F931F93CF93DF9300D02C
:1039200000D00F92CDB7DEB749835A836B837C8377
:103930008D838C819D81892B29F07A018F2D8423A1
:103940008F3F51F590E080E00F900F900F900F9017
:103950000F90DF91CF911F910F91FF90EF90DF902B
:10396000CF90BF90AF909F907F906F905F904F905F
:103970000895B7018A2D0E940B1F0197C1F13CC029
:10398000F80183E0EE0FFF1F8A95E1F7E355FE4F44
:10399000EC0DFD1D90803BC00F2D10E0C42ED12CEE
:1039A0008B81882369F340902D0250902E02609005
:1039B0002F02709030028091310290913202A091DA
:1039C0003302B0913402482A592A6A2A7B2A2FE10D
:1039D000A22EB12C9A2CD301C2010A2C04C0B69598
:1039E000A795979587950A94D2F780FDC2CF81E07D
:1039F000A81AB10878F7912CF80193E0EE0FFF1F99
:103A00009A95E1F7E355FE4FEC0DFD1D9082E9829A
:103A1000FA8269817A81892D0F900F900F900F9013
:103A20000F90DF91CF911F910F91FF90EF90DF905A
:103A3000CF90BF90AF909F907F906F905F904F908E
:103A40000C940B1F20910D0130910E01F90132965B
:103A50009FEF40E05191851751F09F3F19F45111AC
:103A600001C0942F4F5F4630A9F79F3F09F4089596
:103A7000290F311D97FD3A95F90182830895209110
:103A80000D0130910E01F9013296285F3F4F91915F
:103A9000891303C0DF0111971C92E217F307B9F7EE
:103AA000089581E090E0E0910D01F0910E01E80FA2
:103AB000F91F1082019688309105A9F70895809129
:103AC0003F02089590913F02892B80933F02089511
:103AD000809590913F02982390933F0208958093A0
:103AE0003F02089510923F02089590913E02892B63
:103AF00080933E020895809590913E029823909382
:103B00003E02089510923E02089580933502089572
:103B100010923502089520910D0130910E01F901A6
:103B20003196285F3F4F80E0919191118F5FE217AE
:103B3000F307D1F70895E0910D01F0910E01809106
:103B40003F028083E0910D01F0910E018081909100
:103B50003E02892B808390913502992361F0E09198
:103B60000D01F0910E018081892B80830E948B1DB5
:103B700081111092350280910D0190910E010C94EB
:103B8000071190933B0180933A010895829590E04C
:103B90009C01220F331F220F331F2C7C9595879594
:103BA000959587958373282B30E0C901880F991F5D
:103BB0008A7A359527952575822B08950895CF9398
:103BC000DF9300D000D00F92CDB7DEB70F900F90EB
:103BD0000F900F900F90DF91CF9108950895089561
:103BE0000C94691280915502843021F110924102A7
:103BF00088E190E020E40FB6F894A89580936000E7
:103C00000FBE2093600083B7817F846083BF83B73A
:103C1000816083BF7894889583B78E7F83BF0FB60A
:103C2000F894A8958091600088618093600010925C
:103C300060000FBE0895CF930E94B5120E947307D3
:103C40000E94B612C0E08C2F0E945F08811105C04F
:103C5000CF5FC031C1F7CF91089581E0FCCF0E94C2
:103C60006B120C946E171F921FB61F9211248F9324
:103C70009F93AF93BF9380914102811113C08091B4
:103C8000420290914302A0914402B09145024196B4
:103C9000A11DB11D8093420290934302A093440260
:103CA000B0934502BF91AF919F918F911F901FBE1E
:103CB0001F90189582E084BD93E095BD9AEF97BD63
:103CC00080936E0008952FB7F894809142029091EE
:103CD0004302A0914402B09145022FBF08952FB72F
:103CE000F894609142027091430280914402909155
:103CF00045022FBF0895CF92DF92EF92FF920F936C
:103D00001F932FB7F8944091420250914302609163
:103D10004402709145022FBF6A017B01EE24FF240B
:103D20008C0130E020E0C016D106E206F30650F028
:103D3000481B590BCA011F910F91FF90EF90DF9024
:103D4000CF90089541505109F3CF1F921FB61F9293
:103D500011248F939F93AF93BF93809142029091D0
:103D60004302A0914402B09145020196A11DB11DEC
:103D70008093420290934302A0934402B093450281
:103D8000BF91AF919F918F911F901FBE1F9018956B
:103D90000E94200EF8942FEF87EA91E62150804090
:103DA0009040E1F700C0000087E090EBDC018093D9
:103DB0005E0290935F02A0936002B093610288E17B
:103DC0009CE00FB6F894A895809360000FBE909386
:103DD0006000FFCF90E080E00895089520E1829F89
:103DE000C0011124FC01E70FF11D83E0EE0FFF1F5E
:103DF0008A95E1F7E60FF11DE055FF4F8491089594
:103E0000282F205C330BF901EE0FFF1FE455FF4F05
:103E10008591949108950E94EE1E282F30E0A9010B
:103E2000405C51094032510510F40C94001F8D3B49
:103E300060F4883A90F5853A18F58430F8F48130CA
:103E400009F4ACC090E080E00895883E90F4803E94
:103E5000A8F48F3BB9F70E946E172FEF80E792E02E
:103E6000215080409040E1F700C000000E94C81E31
:103E7000E9CF803F38F3C90190650895C9010895DD
:103E8000853A29F0863A31F083E890E4089581E894
:103E900090E4089582E890E40895883A09F43FC0D8
:103EA000893A09F43FC08A3A09F43FC08B3A09F4D1
:103EB0003FC08C3A09F43FC08D3A09F43FC08E3AB6
:103EC00009F43FC08F3A09F43FC0813B09F43FC079
:103ED000803B09F43FC0823B09F43FC0833B09F4B7
:103EE0003FC0843B09F43FC0853B09F43FC0863B9B
:103EF00009F43FC0873B09F43FC0883B09F43FC049
:103F0000893B09F43FC08A3B09F43FC08B3B09F46D
:103F10003FC08C3B09F43FC080E094E4089582EEFA
:103F200094E4089589EE94E408958AEE94E4089563
:103F300085EB94E4089586EB94E4089583EB94E490
:103F4000089584EB94E4089587EB94E408958CEC51
:103F500094E408958DEC94E4089583E895E408953D
:103F60008AE895E4089582E995E4089584E995E462
:103F7000089581E296E4089583E296E4089584E248
:103F800096E4089585E296E4089586E296E408951D
:103F900087E296E408958AE296E4089581E090E04D
:103FA00008958091480280FF12C06091120185E05F
:103FB000689FB00111247595679575956795603870
:103FC0007105A8F561157105A1F1862F089581FF8E
:103FD00009C06091120185E0689FB00111247595B8
:103FE0006795EDCF6091120182FD0AC08091490270
:103FF0008823D1F09091110160911201891728F066
:1040000085E0689FB0011124DACF869FB0011124AA
:1040100085E0869F9001879F300D1124692F70E005
:10402000C9010E945127CBCF65E070E0CECF8FE76A
:10403000089581E008958091480280FF0CC060914E
:10404000100170E075956795759567956115710517
:1040500049F1862F089581FF06C06091100170E03C
:1040600075956795F3CF6091100182FD0BC090911B
:1040700049029923A1F060910F01809110019617D8
:1040800038F0682F70E06038710500F38FE708950D
:10409000899FC001112470E00E945127F4CF61E094
:1040A00070E0D7CF81E00895803F31F40E94D11FA6
:1040B000819580934C020895813F19F40E94D11F8D
:1040C000F8CF823F31F40E94D11F819580934B023B
:1040D0000895833F19F40E94D11FF8CF893F29F436
:1040E0000E941B2080934D0208958A3F21F40E9474
:1040F0001B208195F7CF8B3F31F40E941B208195C7
:1041000080934E0208958C3F19F40E941B20F8CF33
:10411000843F31F480914A02816080934A0208957D
:10412000853F21F480914A028260F7CF863F21F4D7
:1041300080914A028460F1CF873F21F480914A0246
:104140008860EBCF883F21F480914A028061E5CFFF
:104150008D3F31F480914802816080934802089538
:104160008E3F21F4809148028260F7CF8F3FB9F7EC
:10417000809148028460F1CF90914B02803F41F4DE
:1041800080914C0287FD10924C02992371F00895A2
:10419000813F29F480914C021816ACF3F6CF823F90
:1041A00081F497FFF2CF10924B0280914C029091D4
:1041B0004D02892B90914E02892B49F710924902AA
:1041C0000895833F19F4191674F3DFCF893F39F44A
:1041D00080914D021816CCF610924D02D6CF8A3F30
:1041E00029F480914D0287FFD0CFF6CF8B3F39F471
:1041F00080914E0287FFC9CF10924E02C6CF8C3FEE
:1042000029F480914E021816BCF3BFCF843F31F4DD
:1042100080914A028E7F80934A02B7CF853F21F476
:1042200080914A028D7FF7CF863F21F480914A0228
:104230008B7FF1CF873F21F480914A02877FEBCFBC
:10424000883F21F480914A028F7EE5CF8D3F31F483
:10425000809148028E7F8093480297CF8E3F21F451
:10426000809148028D7FF7CF8F3F09F08ECF8091EC
:1042700048028B7FF0CF8091400283FF7EC085E0B3
:1042800095E00E94C40580914A021F928F9380E0BE
:1042900095E09F938F930E945D068EEF94E00E94BD
:1042A000C40580914B02282F082E000C330B3F933E
:1042B0008F938BEF94E09F938F930E945D0689EF1D
:1042C00094E00E94C40580914C02282F082E000C17
:1042D000330B3F938F9386EF94E09F938F930E94CD
:1042E0005D0684EF94E00E94C40580914D02282F62
:1042F000082E000C330B3F938F9381EF94E09F9334
:104300008F930E945D068FEE94E00E94C405809119
:104310004E02282F082E000C330B3F938F938CEE08
:1043200094E09F938F930E945D0689EE94E00E9433
:10433000C405809149021F928F9386EE94E09F936B
:104340008F930E945D0684EE94E00E94C4058091E4
:1043500048021F928F9381EE94E09F938F930E9467
:104360005D068EED94E00E94C4058DB79EB74C9615
:104370000FB6F8949EBF0FBE8DBF8AE492E00E94F4
:1043800053110E94631E9093470280934602089542
:104390001F93CF93DF9380914602909147020E9432
:1043A0007B1EAC01909149022091130130E09111E4
:1043B00006C0209114018AE0289F90011124421721
:1043C000530778F020914B02C0914C02D0914D02DE
:1043D00010914E02211109C08C2F8D2B812B09F0D9
:1043E00074C0DF91CF911F9108959F3F19F09F5F97
:1043F00090934902121624F40E94D11F80934B021D
:1044000080914B0287FF05C00E94D11F8195809348
:104410004B021C1624F40E94D11F80934C02809101
:104420004C0287FF05C00E94D11F819580934C02EA
:1044300060914B02662331F1C0914C02CC2311F103
:10444000062E000C770B880B990B0E944C2623E359
:1044500033E343E35FE30E94B0260E941426609397
:104460004B026C2FCC0F770B880B990B0E944C26BC
:1044700023E333E343E35FE30E94B0260E94142664
:1044800060934C021D1624F40E941B2080934D0261
:1044900080914D0287FF05C00E941B20819580936B
:1044A0004D02111624F40E941B2080934E0280912D
:1044B0004E0287FF05C00E941B20819580934E020B
:1044C000DF91CF911F910C943B219F3F09F08FCF3B
:1044D000A0CF85E0EAE4F2E0DF011D928A95E9F7DA
:1044E0001092490210924802089588E297E00E94D3
:1044F000C4051F9281E08F931F9285E08F938AED10
:1045000096E09F938F930E945D060F900F900F90FF
:104510000F900F900F900895833009F445C028F450
:10452000813061F0823049F10895853009F46AC024
:1045300008F451C0863009F47CC0089580911401BC
:10454000482F460F5527551F4F3F510594F4680FCC
:1045500060931401809114011F928F9383E196E080
:104560009F938F930E945D060F900F900F900F9076
:1045700008958FEF80931401EDCF80911301482FA0
:10458000460F5527551F4F3F510554F4680F609350
:104590001301809113011F928F9381E096E0E0CF89
:1045A0008FEF80931301F5CF80911201482F460FB2
:1045B0005527551F4F3F510554F4680F6093120162
:1045C000809112011F928F938EEE95E0C9CF8FEFED
:1045D00080931201F5CF80911101482F460F552786
:1045E000551F4F3F510554F4680F6093110180919E
:1045F00011011F928F9389ED95E0B2CF8FEF8093D9
:104600001101F5CF80911001482F460F5527551FF6
:104610004F3F510554F4680F6093100180911001D1
:104620001F928F9380EC95E09BCF8FEF80931001CA
:10463000F5CF80910F01482F460F5527551F4F3F4B
:10464000510554F4680F60930F0180910F011F9280
:104650008F9385EA95E084CF8FEF80930F01F5CF9C
:104660008330C9F128F4813061F0823019F1089566
:10467000853009F452C008F43FC0863009F45EC0AA
:10468000089580911401681790F4861B809314019B
:10469000809114011F928F9386E995E09F938F93E9
:1046A0000E945D060F900F900F900F90089510924A
:1046B0001401EECF80911301681750F4861B80938C
:1046C0001301809113011F928F9384E895E0E6CF48
:1046D00010921301F6CF80911201681750F4861BD7
:1046E00080931201809112011F928F9381E795E0D0
:1046F000D5CF10921201F6CF80911101681750F4B6
:10470000861B80931101809111011F928F938CE57C
:1047100095E0C4CF10921101F6CF80911001681777
:1047200050F4861B80931001809110011F928F938B
:1047300083E495E0B3CF10921001F6CF80910F0182
:10474000681750F4861B80930F0180910F011F9210
:104750008F9388E295E0A2CF10920F01F6CFCF930E
:10476000C82F1F928F938DE298E09F938F930E94A2
:104770005D0661E070E080E090E004C0660F771FA6
:10478000881F991FCA95D2F70E94721B0F900F9035
:104790000F900F90CF910C946E178732D8F58E3111
:1047A00008F0F2C08E3009F48EC078F4873009F436
:1047B00071C08B3009F458C0863009F45AC08CEEB1
:1047C00098E00E94C40580E00895863109F4A5C0F0
:1047D00078F48031A1F790914002892F877F93FF71
:1047E00088608093400283FF7EC08AE69AE062C0C0
:1047F000893109F47BC08B3111F790914002892FE8
:104800008D7F91FF82608093400281FF59C083EACF
:104810009AE050C0883341F150F4893221F0853359
:1048200011F0873261F680E00E94AF231BC0833411
:10483000D1F320F48A3318F28953F6CF883409F083
:10484000BECF0E946E1789EC9AE00E94C4052FEF3C
:1048500083ED90E3215080409040E1F700C00000DC
:104860000E94C81E81E0089589E598E00E94C40571
:10487000F9CF80914002807F8093400282E398E0EC
:104880000E94C4058AED9AE00E94C40581E08093ED
:10489000500208958091400280FF0AC08CEB9AE09C
:1048A0000E94C40580914002807F80934002DACF4D
:1048B00080EB9AE00E94C405809140028160F5CFB0
:1048C00085E99AE0D3CF90914002892F8B7F92FFA8
:1048D00084608093400282FF03C086E89AE0EACFBA
:1048E00086E79AE0C3CF8DE59AE0C0CF8EE49AE0E8
:1048F0000E94C4058BE29AE00E94C40586EE99E00E
:104900000E94C40588EB99E00E94C40582E899E002
:104910000E94C40587E599E0A9CF89E499E00E9447
:10492000C4050E94FB101F928F938FE299E09F9322
:104930008F930E945D0680910C011F928F9388E1F6
:1049400099E09F938F930E945D0680915D011F9275
:104950008F9385E099E09F938F930E945D060E945C
:104960006F1E9F938F937F936F938EEE98E09F932C
:104970008F930E945D068DB79EB742960FB6F8944E
:104980009EBF0FBE8DBF6ECF8D514ECF80E008957C
:104990000C94C624CF93C82F809150028130D1F05F
:1049A000882339F0823009F44BC01092500280E025
:1049B0000FC067E08FE00E946D12882349F08C2FB2
:1049C0000E94C62481111DC08C2F0E94CD238170AE
:1049D000CF91089567E08FE00E946D128111EFCFB3
:1049E0008C2F0E94C82481111BC0C431D9F060F4FF
:1049F000CB3071F0C031D1F083E298E00E94C40561
:104A000013C081E090E0E3CFC93261F0C833A1F771
:104A100082E398E00E94C40589E298E00E94C40500
:104A200081E0D5CF1092500280E0D1CF0E94752254
:104A300085E298E00E94C40582E080935002F0CFA6
:104A4000C432C8F4CE3108F0BEC0CB30E1F040F43F
:104A5000C73009F4CFC087EC96E00E94C40526C099
:104A6000C331C1F1C431B9F780914F02882351F1AC
:104A700010924F020AC0CB3409F4BAC0C8F4C9324C
:104A800099F3C83341F70E94752280914F02882321
:104A900009F4C7C01F928F9381EC96E09F938F9388
:104AA0000E945D060F900F900F900F9081E090CFC5
:104AB000C13509F497C0C23509F48EC0CE3459F619
:104AC0006AE091C086ED96E00E94C40581E0809383
:104AD00050027ECF80EB96E00E94C4058EE996E0FE
:104AE0000E94C405809114011F928F938BE996E078
:104AF0009F938F930E945D0689E996E00E94C4050A
:104B000087E896E00E94C405809113011F928F935D
:104B100084E896E09F938F930E945D0682E896E07A
:104B20000E94C40583E796E00E94C40580911201AB
:104B30001F928F9380E796E09F938F930E945D066C
:104B40008EE696E00E94C4058DE596E00E94C405BD
:104B5000809111011F928F938AE596E09F938F9326
:104B60000E945D0688E596E00E94C40583E496E015
:104B70000E94C405809110011F928F9380E496E0FB
:104B80009F938F930E945D068EE396E00E94C4057A
:104B900087E296E00E94C40580910F011F928F93D7
:104BA00084E296E09F938F930E945D0682E296E0F6
:104BB0000E94C4058DB79EB748960FB6F8949EBF65
:104BC0000FBE8DBF62CFCE51EC2FF0E0E05DFE4F07
:104BD000808180934F0259CF61E080914F020E9403
:104BE0008C2253CF61E080914F020E9430234DCF41
:104BF0006AE0F3CF8EE18093140182E38093130186
:104C00008AE08093120184E18093110188E080930F
:104C1000100188E280930F0189EC96E00E94C405A0
:104C200034CF8EEB96E019CF0E941B266894B11109
:104C30000C94AA2608950E948F2688F09F5798F01A
:104C4000B92F9927B751B0F0E1F0660F771F881F91
:104C5000991F1AF0BA95C9F714C0B13091F00E94AB
:104C6000A926B1E008950C94A926672F782F8827EC
:104C7000B85F39F0B93FCCF3869577956795B395D2
:104C8000D9F73EF490958095709561957F4F8F4F41
:104C90009F4F0895E89409C097FB3EF49095809546
:104CA000709561957F4F8F4F9F4F9923A9F0F92FF2
:104CB00096E9BB279395F695879577956795B79570
:104CC000F111F8CFFAF4BB0F11F460FF1BC06F5F56
:104CD0007F4F8F4F9F4F16C0882311F096E911C068
:104CE000772321F09EE8872F762F05C0662371F089
:104CF00096E8862F70E060E02AF09A95660F771F9D
:104D0000881FDAF7880F9695879597F9089557FDCC
:104D10009058440F551F59F05F3F71F04795880F29
:104D200097FB991F61F09F3F79F0879508951216C0
:104D300013061406551FF2CF4695F1DF08C016166C
:104D400017061806991FF1CF86957105610508941D
:104D50000895E894BB2766277727CB0197F9089534
:104D60000E94C3260C9434270E94262738F00E9404
:104D70002D2720F0952311F00C941D270C94232748
:104D800011240C94AA260E94872670F3959FC1F3E4
:104D9000950F50E0551F629FF001729FBB27F00DE9
:104DA000B11D639FAA27F00DB11DAA1F649F66273E
:104DB000B00DA11D661F829F2227B00DA11D621F8D
:104DC000739FB00DA11D621F839FA00D611D221F47
:104DD000749F3327A00D611D231F849F600D211D2B
:104DE000822F762F6A2F11249F5750409AF0F1F0AE
:104DF00088234AF0EE0FFF1FBB1F661F771F881F17
:104E000091505040A9F79E3F510580F00C941D270A
:104E10000C94AA265F3FE4F3983ED4F386957795E9
:104E20006795B795F795E7959F5FC1F7FE2B880FBC
:104E3000911D9695879597F9089597F99F6780E852
:104E400070E060E008959FEF80EC089500240A94DC
:104E50001616170618060906089500240A94121655
:104E60001306140605060895092E0394000C11F488
:104E7000882352F0BB0F40F4BF2B11F460FF04C035
:104E80006F5F7F4F8F4F9F4F0895991B79E004C04C
:104E9000991F961708F0961B881F7A95C9F7809579
:104EA000089597FB072E16F4009407D077FD09D0DC
:104EB0000E946B2707FC05D03EF4909581959F4F8B
:104EC0000895709561957F4F0895EE0FFF1F05902F
:104ED000F491E02D0994AA1BBB1B51E107C0AA1F46
:104EE000BB1FA617B70710F0A61BB70B881F991F8B
:104EF0005A95A9F780959095BC01CD010895F89435
:104F0000FFCFD30FF80F4810F80F4810281060108B
:104F10004810B410C11076147614B214B2143715B8
:104F20006D156614661486156614721672161717B8
:064F3000661466142E1742
:104F3600FFFF6B095E0A390A050AD1090136022804
:104F460008140A321E6E6F0079657300404D3622D2
:104F56004604F903C303A1032D0346035F03780345
:0A4F66000102030405060708090014
:00000001FF
