:100000000C9465060C94AD060C94AD060C94AD06EC
:100010000C94AD060C94AD060C94AD060C94AD0694
:100020000C94AD060C94AD060C94E2270C94AD062E
:100030000C94D0280C94AD060C94AD060C94AD062F
:100040000C94AD060C94AD060C94AD060C94AD0664
:100050000C94AD060C94F7280C94AD060C94AD06E8
:100060000C94AD060C94AD060C94AD060C94AD0644
:100070000C94AD060C94AD060C94AD060C94AD0634
:100080000C94AD060C94AD060C94AD060C94AD0624
:100090000C94AD060C94AD060C94AD060C94AD0614
:1000A0000C94AD060C94AD060C94AD060631FF0918
:1000B00074A1010975150026FF00952075088102BD
:1000C0000976150026FF00952075089102C00501EC
:1000D0000902A1010901A1008501050919012908E9
:1000E00015002501950875018102050109300931C6
:1000F0001581257F95027508810609381581257FB0
:10010000950175088106050C0A38021581257F9531
:100110000175088106C0C005010980A1018502168C
:1001200001002637001A81002AB700751095018159
:1001300000C0050C0901A1018503160100269C02DF
:100140001A01002A9C02751095018100C005010961
:1001500006A101050719E029E71500250195087595
:10016000018102950175088101050819012905958C
:100170000575019102950175039101050719002983
:10018000FF150026FF00950675088100C04B3A2434
:1001900025583A4C61796F75743A2025730A004BE3
:1001A0003A2425583A53657475702E2052333A25F7
:1001B0003034580A004B3A2425583A4E6F74206662
:1001C0006F756E640A004D3A2425583A4B656E737C
:1001D000696E67746F6E0A004D3A2425583A457867
:1001E00074656E6465640A004D3A2425583A4C6F74
:1001F0006769746563682D457874656E6465640A23
:10020000004D3A2425583A4C6F6769746563680A53
:10021000004D3A2425583A4D6163616C6C792D325A
:1002200062746E0A004D3A2425583A4B656E736924
:100230006E67746F6E204578740A004D3A24255815
:100240003A4558543A205B253032582025303258F0
:100250002025303258202530325820253032582081
:1002600025303258202530325820253032585D2034
:100270006370693D25642062746E3D2564206C6561
:100280006E3D25640A004D3A2425583A436C61734B
:1002900073696332203230306370690A004D3A244A
:1002A00025583A436C617373696331203130306390
:1002B00070690A004D3A2425583A53657475702EBA
:1002C0002052333A253034580A004D3A2425583A02
:1002D0004E6F7420666F756E640A00413A2425588B
:1002E0003A4170706C69616E6365284D656469613F
:1002F000206B657973290A00523A2425583A4D6FCC
:10030000766520746F202425582E2052333A2530EC
:1003100034580A00523A2425583A4661696C2074D0
:100320006F206D6F76650A00523A2425583A4E6F59
:10033000206672656520616464726573730A005299
:100340003A2425583A466F756E642E2052333A256A
:100350003034580A005D0A00253032582000553AE2
:100360002425583A253032583A5B20004C25640A3F
:100370000077686572652064656C74613A20637506
:1003800072736F723D25642C20776865656C3D251E
:10039000640A53656520687474703A2F2F656E2E59
:1003A00077696B6970656469612E6F72672F776911
:1003B0006B692F4D6F7573655F6B6579730A000A02
:1003C000092D204D6F7573656B6579202D0A455396
:1003D000432F713A09717569740A313A0964656C81
:1003E0006179282A31306D73290A323A09696E74AD
:1003F000657276616C286D73290A333A096D6178EC
:100400005F73706565640A343A0974696D655F7479
:100410006F5F6D61780A353A09776865656C5F6D65
:1004200061785F73706565640A363A097768656557
:100430006C5F74696D655F746F5F6D61780A0A70D7
:100440003A097072696E742076616C7565730A641E
:100450003A097365742064656661756C74730A7516
:10046000703A092B310A646F776E3A092D310A70A0
:100470006775703A092B31300A7067646F776E3A8E
:10048000092D31300A0A7370656564203D2064656A
:100490006C7461202A206D61785F737065656420DB
:1004A0002A2028726570656174202F2074696D653B
:1004B0005F746F5F6D6178290A006D6B5F776865A7
:1004C000656C5F74696D655F746F5F6D6178203D09
:1004D0002025640A006D6B5F776865656C5F6D61F0
:1004E000785F7370656564203D2025640A006D6B3C
:1004F0005F74696D655F746F5F6D6178203D202565
:10050000640A006D6B5F6D61785F73706565642070
:100510003D2025640A006D6B5F696E7465727661BB
:100520006C203D2025640A006D6B5F64656C617909
:10053000203D2025640A006D6B5F776865656C5F00
:1005400074696D655F746F5F6D6178203D2025640F
:100550000A006D6B5F776865656C5F6D61785F73CE
:1005600070656564203D2025640A006D6B5F7469C9
:100570006D655F746F5F6D6178203D2025640A00B2
:100580006D6B5F6D61785F7370656564203D2025DC
:10059000640A006D6B5F696E74657276616C203DF4
:1005A0002025640A006D6B5F64656C6179203D20D5
:1005B00025640A000A092D204D61676963202D0A10
:1005C000643A0964656275670A783A096465627518
:1005D00067206D61747269780A6B3A0964656275A7
:1005E00067206B6579626F6172640A6D3A096465B0
:1005F000627567206D6F7573650A763A0976657264
:1006000073696F6E0A733A097374617475730A6360
:100610003A09636F6E736F6C65206D6F64650A30A5
:100620002D343A096C61796572302D3428463130A9
:100630002D4634290A506175733A09626F6F746CE4
:100640006F616465720A003F0074696D65725F7264
:10065000656164333228293A202530346C580A0009
:100660006B6579626F6172645F69646C653A2025BD
:10067000580A006B6579626F6172645F70726F74A3
:100680006F636F6C3A2025580A00686F73745F6B54
:100690006579626F6172645F6C65647328293A20C2
:1006A00025580A000A092D20537461747573202D92
:1006B0000A004743433A2031342E312E3020415630
:1006C000522D4C4942433A20322E322E3020415690
:1006D000525F415243483A20617672350A004F50CA
:1006E00054494F4E533A204C554641204D4F555397
:1006F000454B45592045585452414B455920434F8D
:100700004E534F4C4520434F4D4D414E44204B4599
:10071000594D41505F53454354494F4E2034303971
:10072000360A004255494C443A20616263363137FB
:10073000202831303A34323A30342053657020204A
:10074000392032303234290A005649443A20307870
:100750004645454428742E6D2E6B2E292050494461
:100760003A2030783041444228414442206B657938
:10077000626F61726420636F6E7665727465722950
:10078000205645523A203078303130310A00444505
:1007900053433A20636F6E76657274204144422061
:1007A0006B6579626F61726420746F205553420AE1
:1007B000000A092D2056657273696F6E202D0A009C
:1007C0000A6D6F7573653A206F66660A000A6D6F71
:1007D0007573653A206F6E0A000A6B6579626F6106
:1007E00072643A206F66660A000A6B6579626F610F
:1007F00072643A206F6E0A000A6D61747269783A09
:10080000206F66660A000A6D61747269783A206F1B
:100810006E0A000A64656275673A206F6E0A000A04
:1008200064656275673A206F66660A000A0A626F3D
:100830006F746C6F616465722E2E2E2000433E2013
:1008400000290A002575002F002575005D28002568
:100850006400200025640020002564002000256439
:10086000007C0025303258006D6F7573656B6579BB
:10087000205B62746E7C782079207620685D287217
:1008800065702F61636C293A205B00041607090B21
:100890000A1D1B06196405141A08151C171E1F20B3
:1008A0002123222E26242D25273012182F0C132821
:1008B0000F0D340E333136381110372B2C352A58A2
:1008C00029787B79397A504F5152808063685680FD
:1008D0006680530201035558805780805462595AEC
:1008E0005B5C5D5E5F8060617475673E3F403C416C
:1008F00042774476460047804365453248494A4B33
:100900004C3D4D3B4E3A7D7E7C7F730A0025303254
:100910005820006B6579626F6172643A20000A09A1
:100920002D20436F6E736F6C65202D0A4553432F46
:10093000713A09717569740A6D3A096D6F7573655D
:100940006B65790A003F004D3E2000433E20000ABF
:1009500000257500363A20776865656C5F74696DAF
:10096000655F746F5F6D61783A20000A002575003D
:10097000353A20776865656C5F6D61785F73706587
:1009800065643A20000A00257500343A2074696DC8
:10099000655F746F5F6D61783A20000A002575000D
:1009A000333A206D61785F73706565643A20000AA0
:1009B00000257500323A20696E74657276616C2884
:1009C0006D73293A20000A00257500313A206465CC
:1009D0006C6179282A31306D73293A20000A092D7B
:1009E0002056616C756573202D0A004D3E004D2523
:1009F000643E20003F007365742064656661756C19
:100A0000740A00433E2000636F6E73756D65723A21
:100A100020253034580A0073797374656D3A2025A7
:100A20003034580A006D6F7573653A205B2530329B
:100A3000587C25642025642025642025645D0A00F7
:100A400009025400030100A032090400000103015F
:100A5000010009211101000122400007058103085E
:100A6000000A09040100010301020009211101002B
:100A700001227F000705820308000109040200012A
:100A80000300000009211101000122220007058353
:100A9000032000011201100100000008EDFEDB0A36
:100AA0000101010200012E03410044004200200028
:100AB0006B006500790062006F00610072006400E5
:100AC000200063006F006E00760065007200740005
:100AD0006500720000000E0374002E006D002E00F1
:100AE0006B002E0000000403090425583A25303815
:100AF0006225730A000A202030313233343536370C
:100B00000A004C45443A20253032580A000A4C6FFE
:100B10006F702073746172742E0A000A555342205C
:100B2000636F6E666967757265642E0A000A544DBC
:100B30004B3A6162633631372F4C5546413A643641
:100B4000613764660A007300530052006D3A242531
:100B5000583A2530345820006D3A556E6B6E6F77D9
:100B60006E3A20253032580A005B20423A25303256
:100B70005820583A25642825642920593A256428A4
:100B800025642920563A2564205D0A005D20002551
:100B900030325820004D3A2425583A253032583A00
:100BA0005B20004B3A2425583A253032583A2530FC
:100BB000345820000A002425582052333A25303476
:100BC000580A000A5363616E3A0A000A0025583A2F
:100BD000253032582025583A253032580A002D2D1C
:100BE0002D2D2D2D2D2D2D0A00413A482020613A22
:100BF000680A000A5461626C653A0A00AC07A907EA
:100C00008107AC07A907A907A9078107AC07A907AE
:100C100081078107AC07A907C80BCE0BD10BD70BF7
:100C2000EC0BF20BF60BFA0BFE0BDA0BDF0BE30B04
:100C3000E90B020C080C0C0C600C660C6A0C6E0CB8
:100C4000720C170C170C170C170C760C7C0C800C04
:100C50002A0E500E560E500E560EB30ED50E560ED0
:100C6000D00FDD0F761D881D551D551D551D711D9D
:100C7000551D551DAE1D551DBE1D551D551D551D22
:100C8000551D551DE51D551D551DCE1D551D9E1D82
:100C9000551D551D291E291E291E291E291E291EC6
:100CA000291E291E291E251E551D251E2F202F20D9
:100CB0006D206D20E42017219D209D202D219D2059
:100CC0001C221C229D209D20CB2211241FBECFEF71
:100CD000DAE0DEBFCDBF04B603FE28C08091CF03AB
:100CE0009091D003A091D103B091D2038730904B63
:100CF000A740B04BD9F41092CF031092D0031092BA
:100D0000D1031092D20314BE0FB6F894A895809127
:100D10006000886180936000109260000FBE1092A6
:100D2000010810920008E0E0F8E3099511E0A0E066
:100D3000B1E0E8EFF4E502C005900D92A037B107ED
:100D4000D9F723E0A0E7B1E001C01D92AF3CB207A4
:100D5000E1F70E941C250C947A2A0C940000FF9362
:100D6000EF93E0917001F0917101309709F00995CE
:100D7000EF91FF910895FC018591803011F0EFDF34
:100D8000FBCF0895FF27E0E230E247FF0CC041951A
:100D900097FF09C0EDE26095709580959095611D73
:100DA000711D811D911D27FF02C0219530E350E286
:100DB000AA27660F771F881F991FAA1FA41710F074
:100DC000A41B63955A95A9F7AA3008F0A95FA05D06
:100DD000AF93F395611571058105910541F7ED32EA
:100DE00011F4EF93F395F21718F43F93F395FBCFBB
:100DF0008F91B5DFFA95E1F70895E991F991859121
:100E0000803021F0853219F0AADFF9CF089520E073
:100E1000E89455915532C1F3503311F468945591CB
:100E20005A3348F4505390F3220F022E220F220F10
:100E3000200D250FF4CF0EF4219589919991533609
:100E400019F3533729F1533559F1BC0188279927F4
:100E5000E8945C3621F489919991689455915436BF
:100E600039F446EF7EF077FF0DC08FEF9FEF0AC099
:100E700055374AE039F0583540E121F0523642E02A
:100E800009F00895FF93EF937DDFEF91FF91B7CFC6
:100E9000FF93EF93FC0181918030B9F360DFFBCFCA
:100EA000FF93EF9368DFF1CFDF93CF93CDB7DEB73A
:100EB0002596A3DFCF91DF910895982FE82FE6952F
:100EC000E695E695EF70F0E0E154FC4F8081492F04
:100ED000477021E030E001C0220F4A95EAF797FF02
:100EE00004C02095822380830895822BFCCFE82FB5
:100EF0008F31D8F4813138F4863068F481E0E43001
:100F0000F0F480E00895E151EE30D8F7F0E0E250DF
:100F1000FA4F0C942F29E750E73098F785E401C089
:100F20008695EA95EAF781700895853C91F040F442
:100F3000823C79F081E0E43C71F0E13C11F70895E6
:100F4000873C51F0E85C81E0E23008F080E0880FF7
:100F5000089582E00895089581E00895899A81981E
:100F6000882779998395089580918403811113C00E
:100F70009FB7F89440918003509181036091820360
:100F8000709183039FBF443C59406105710520F077
:100F900081E08093840381E0089580917F03089528
:100FA00080914E0387FF13C08091E80082FF06C046
:100FB0008091E8008B778093E800089580917E030C
:100FC0008111F2CF089580917E038115D9F380912C
:100FD000E80080FFF8CF8091E8008E77ECCF209179
:100FE000E4003091E50095E6A9012091EC00822F04
:100FF000817020FF06C08091E80080FF06C080E07D
:1010000008952091E80022FD1AC080917E03811589
:1010100089F0853089F08091EB0085FD0FC020912B
:10102000E4003091E50042175307F9F29A95E1F692
:1010300084E0089582E0089583E0089581E00895B2
:10104000FC019B01809154039091550386179707EB
:1010500040F0672B29F48091E8008E778093E800B8
:10106000C90140E0009741F4411106C08091E800B9
:1010700082FF2FC080E0089520917E032115A9F101
:101080002530A9F12091E80023FD2DC02091E80032
:1010900022FDECCF2091E80020FFE4CF3091F30057
:1010A0002091F200009719F02830310558F041E006
:1010B0002830310509F040E02091E8002E77209398
:1010C000E800D0CF41914093F10001972F5F3F4F4F
:1010D000E9CF80917E03811541F0853041F0809108
:1010E000E80083FFC3CF81E0089582E0089583E0A4
:1010F0000895E8EDF0E080818E7F80831092E20019
:101100001092DA001092E100A0EEB0E08C918160C4
:101110008C9380818F77808319BCA7EDB0E08C9190
:101120008E7F8C9380818F7E808310924D030895F3
:10113000E0915603F0915703309721F00190F08130
:10114000E02D099480E0089580910E0390910D03A5
:10115000981301C008958F5F8770FACF41E050E087
:1011600060E070E004C0440F551F661F771F8A952A
:10117000D2F78091070390910803A0910903B091E1
:101180000A03842B952BA62BB72B809307039093F0
:101190000803A0930903B0930A03089541E050E0C7
:1011A00060E070E004C0440F551F661F771F8A95EA
:1011B000D2F7409550956095709580910703909176
:1011C0000803A0910903B0910A0384239523A62361
:1011D000B7238093070390930803A0930903B09368
:1011E0000A030895A4E7B1E0EFEF90E02D91821794
:1011F00051F0EF3F19F4211101C0E92F9F5F9630A4
:10120000A9F7EF3F09F408950E2E000CFF0BEE58DE
:10121000FE4F82830895E4E7F1E09191891302C0C3
:10122000DF011E9291E0EA37F907B9F70895E2E786
:10123000F1E01182128213821482158216821782C3
:1012400008952FB7F8948091800390918103A09125
:101250008203B09183032FBF0895BF92CF92DF9294
:10126000EF92FF920F931F93CF93DF93D82F0FB678
:1012700007FE49C080917E03843071F08091140193
:1012800090E001962091160130E082239323209173
:10129000150128171906B9F50E94B40781110FC06E
:1012A0002091140130E02F5F3F4F8091160190E0B4
:1012B00028233923809115018217130621F50E94F6
:1012C00021098C018091E900C091EC008F70C795D5
:1012D000CC27C795C82B83E08093E90085E0C82E12
:1012E00095E0B92E8091EB0085FD0AC09091EB004E
:1012F000892F817090FF04C09091EE0097FD42C04D
:10130000CF70C093E9008091140190E09C012F5FA1
:101310003F4F4091160150E02423352340911501A1
:101320004217130609F459C0E0911201F09113011C
:10133000E80FF91FD083809114018F5F90911601FF
:1013400089238093140149C0E0911201F0911301A7
:10135000E90FF11D20819F5F309116019323909337
:1013600015012093F1009091E80095FD0BC090913C
:10137000E80090FF07C09091E8009E779093E80006
:10138000B092170190911501209114013091E8005D
:10139000291721F035FDD8CF80E004C035FFFCCF00
:1013A000D093F1003091F3004091F200532F452B80
:1013B00079F03091E80030FF0BC03091E80035FD46
:1013C00017C03091E8003E773093E800C0921701D3
:1013D000811589F0CF70C093E90080E0DF91CF9153
:1013E0001F910F91FF90EF90DF90CF90BF900895E5
:1013F0001092F100E2CF30E02F5F3F4F4091160195
:1014000050E0242335239217130609F079CFD090AA
:101410001701D11409F474CF0E9421098017910794
:1014200009F460CFDA94D09217018C015BCF0E944F
:101430007908F89487E797E790930108809300086C
:1014400087E090EBDC018093CF039093D003A093CF
:10145000D103B093D20388E19CE00FB6F894A8952D
:10146000809360000FBE90936000FFCF28E0729FD2
:10147000F0011124E60FF11DE557F74F7491972FF6
:101480009295977028E0829FF0011124E90FF11DD9
:1014900084E0EE0FFF1F8A95E1F77F70E70FF11DE3
:1014A000EE0FFF1FE050F8498591959108954F92F6
:1014B0005F926F927F928F929F92BF92CF92DF92B4
:1014C000EF92FF920F931F93CF93DF9300D000D042
:1014D0000F92CDB7DEB749835A836B837C838D83AC
:1014E0008C819D81892B09F46FC0B42EE52E852F48
:1014F00084238F3F09F468C0052F10E0C42ED12C3F
:10150000611509F455C0409007035090080360909E
:10151000090370900A038091030390910403A09142
:101520000503B0910603482A592A6A2A7B2A2FE12B
:10153000822E912CD301C201082C04C0B695A79528
:10154000979587950A94D2F780FD29C081E0881A83
:10155000910880F7F12C93E0000F111F9A95E1F7A5
:1015600001581D4FF801EC0DFD1DF0826B2D7E2DF5
:101570008F2D0F900F900F900F900F90DF91CF91C4
:101580001F910F91FF90EF90DF90CF90BF909F90B1
:101590008F907F906F905F904F900C94360AF82C4C
:1015A0006B2D7E2D882D0E94360A019779F2D3CFBC
:1015B00083E0000F111F8A95E1F701581D4FF801D4
:1015C000EC0DFD1DF080D2CF80E090E00F900F90E9
:1015D0000F900F900F90DF91CF911F910F91FF907F
:1015E000EF90DF90CF90BF909F908F907F906F9003
:1015F0005F904F900895CF93DF9300D000D00F926B
:10160000CDB7DEB749835A836B837C838D838C810E
:101610009D81892B01F1852F84238F3FE1F08D81FE
:101620000E94570A382F292F22952F70903C78F46A
:101630002A3098F4225F2F7081E0223060F40F90FE
:101640000F900F900F900F90DF91CF9108952C3055
:1016500071F02F3061F080E0F2CF803E18F481E02D
:10166000303CECCF315F81E0333048F7F4CF9F70EE
:1016700081E09830FACF8091FF0280FF12C0609124
:10168000040185E0689FB0011124759567957595F3
:10169000679560387105A8F561157105A1F1862F70
:1016A000089581FF09C06091040185E0689FB00141
:1016B000112475956795EDCF6091040182FD0AC0F4
:1016C00080915F038115D1F0909103016091040135
:1016D000891728F085E0689FB0011124DACF689F50
:1016E000B001112485E0869FA001879F500D112431
:1016F000692F70E0CA010E941B29CBCF65E070E022
:10170000CECF8FE7089581E008958091FF0280FF9A
:101710000CC06091020170E07595679575956795AD
:101720006115710549F1862F089581FF06C060910A
:10173000020170E075956795F3CF6091020182FD1B
:101740000BC090915F039115A1F060910101809110
:101750000201961738F0682F70E06038710500F3C9
:101760008FE70895899FC001112470E00E941B2912
:10177000F4CF61E070E0D7CF81E00895E0E1E80FB9
:10178000803F08F444C0F0E0E45FF94F0C942F2947
:101790000E943B0B819580935C0308950E943B0B54
:1017A000FACF0E943B0B819580935B0308950E94C2
:1017B0003B0BFACF0E94850B80935D0308950E9436
:1017C000850B8195F9CF0E94850B819580935E03EF
:1017D00008950E94850BFACF80915A03816080930F
:1017E0005A03089580915A038260F9CF80915A0379
:1017F0008460F5CF80915A038860F1CF80915A03BD
:101800008061EDCF8091FF0281608093FF02089597
:101810008091FF028260F9CF8091FF028460F5CF52
:1018200090915C03803F99F497FD10925C03809146
:101830005B0390915C03892B90915D03892B9091C0
:101840005E03892B811102C010925F030895813FCE
:1018500019F4191654F3EBCF90915B03823F29F4EE
:1018600097FFE5CF10925B03E2CF833F19F419167F
:10187000CCF3DDCF90915D03893F29F41916BCF6B6
:1018800010925D03D4CF8A3F19F497FFD0CFF8CFE1
:1018900090915E038B3F29F497FFC9CF10925E03AE
:1018A000C6CF8C3F19F41916CCF3C1CFECE0E80F8A
:1018B000843F08F4BCCFF0E0E45EF94F0C942F298C
:1018C00080915A038E7F80935A03B1CF80915A033F
:1018D0008D7FF9CF80915A038B7FF5CF80915A038A
:1018E000877FF1CF80915A038F7EEDCF8091FF02E9
:1018F0008E7F8093FF029BCF8091FF028D7FF9CF77
:101900008091FF028B7FF5CF982F9093E900891784
:1019100071F07091EC002091ED005091F00021FDEC
:1019200009C09F5F973089F78093E9000895762F6B
:10193000242F50E03091EB003E7F3093EB0030914C
:10194000ED003D7F3093ED003091EB00316030933E
:10195000EB007093EC002093ED005093F000209189
:10196000EE0027FDDECF0895CF92DF92EF92FF9237
:101970000F931F93CF93DF93C8EDD0E088818F7EC4
:101980008883E7EDF0E080818160808384E082BF1E
:1019900081E080934D0388818E7F888302EE10E082
:1019A000F80110821092DA0081EEC82ED12CF601D7
:1019B000108288818F778883888180688883888176
:1019C0008F7D888319BC10927E0310924C03109275
:1019D000590310924B0390EEE92EF12CF701808110
:1019E0008B7F808388818160888342E060E080E033
:1019F0000E94840CF60180818E7F8083F8018081B3
:101A000081608083808188608083F70180818E7F00
:101A10008083888180618883DF91CF911F910F91AE
:101A2000FF90EF90DF90CF9008950F931F93CF9387
:101A3000DF93CDB7DEB7AA970FB6F894DEBF0FBE1F
:101A4000CDBF80917E03811509F441C18091E900E9
:101A50001091EC008F70179511271795182B109285
:101A6000E9008091E80083FF2FC18EE493E0FC0140
:101A700001962091F100208323E086359207B9F783
:101A800080914F03893009F466C0C8F4823009F4AC
:101A9000D0C0833009F485C08130E9F18091E8003D
:101AA00083FF04C180914E0390914F039A3008F058
:101AB000FDC0E92FF0E0E85DF94F0C942F298A3042
:101AC00009F4A6C08B3051F780914E03813231F773
:101AD0008091520390915303892B59F48091E8002F
:101AE000877F8093E8000E94D00780915003809305
:101AF00005018091520390915303019779F68091EB
:101B0000E800877F8093E8000E94D007809150030F
:101B100080931801C3CF80914E03813A09F0BECF64
:101B20008091E800877F8093E80080915203909134
:101B30005303892B61F060E080E090E070E00E9448
:101B400020088091E8008B778093E800A7CF68E0B9
:101B500086E793E0F3CF80914E03813209F09ECF68
:101B60008091520390915303892B09F097CF809174
:101B7000E800877F8093E8008091E80082FF0CC036
:101B80008091F10080937F038091E8008B778093B0
:101B9000E8000E94D00782CF80917E038111ECCFB4
:101BA0007DCF80914E03813A09F078CF8091520326
:101BB00090915303892BA1F48091E800877F809353
:101BC000E8008091E80080FFFCCF809105018093C0
:101BD000F1008091E8008E778093E8000E94D007A2
:101BE0008091520390915303019709F057CF809150
:101BF000E800877F8093E8008091E80080FFFCCFB9
:101C0000809118018093F1008091E8008E77BFCF1A
:101C100080914E03813209F041CF8091E800877FA7
:101C20008093E8000E94D0078091510380934A037B
:101C300035CF80914E03813A09F030CF8091E80092
:101C4000877F8093E8008091E80080FFFCCF80913F
:101C50004A03D8CF803889F0823841F58091520309
:101C60008F70873018F58093E9008091EB0085FB39
:101C7000882780F91092E90006C080915903880FE7
:101C800090914B03892B9091E800977F9093E80007
:101C90008093F1001092F1008091E8008E772DC0C2
:101CA000811120C080915003813061F18091E80062
:101CB00083FF0AC08091E800877F8093E8008091CD
:101CC000EB0080628093EB001F701093E900AA96EE
:101CD0000FB6F894DEBF0FBECDBFDF91CF911F913D
:101CE0000F910895823011F780915003811589F08A
:101CF0001092E9008091E800877F8093E8000E94BD
:101D0000D007D4CF81E0933009F080E0809359036D
:101D1000EFCF809152038F702FEF280F263030F6CF
:101D20008093E9002091EB0020FFE2CF933031F463
:101D30008091EB0080628093EB00DACF9091EB0012
:101D400090619093EB0021E030E0A90102C0440FC4
:101D5000551F8A95E2F74093EA001092EA008091BD
:101D6000EB008860E8CF8111A1CF009150030F777D
:101D70008091E3008078802B8093E3008091E800DD
:101D8000877F8093E8000E94D0078091E80080FF61
:101D9000FCCF8091E30080688093E30083E0011131
:101DA00001C082E080937E0381CF8058823008F0AA
:101DB0007DCF80915003909151038C3D53E0950766
:101DC00099F583E08A838AE289834FB7F894DE012C
:101DD000139620E03EE051E2E32FF0E050935700ED
:101DE000849120FF03C082958F703F5F8F708A308F
:101DF000C8F0895C90E08D939D932F5F243161F74B
:101E00004FBF8091E800877F8093E8006AE270E02E
:101E1000CE0101960E9420088091E8008B77809384
:101E2000E80044CF805DE6CF292F332723303105EA
:101E300009F44DC078F52130310509F47CC084E502
:101E400090E0E0E4FAE02230310509F02FCF209154
:101E5000E800277F2093E800209154033091550338
:101E60008217930708F49C0140E02115310509F021
:101E700067C0411165C08091E80082FDCDCF80919F
:101E80007E03811549F2853039F28091E80083FFA5
:101E9000F2CFC2CF8091520390915303213231058A
:101EA000D9F12232310509F001CF8330910508F0D4
:101EB000FDCEFC01EE0FFF1FED59FE4F0190F081AA
:101EC000E02D805A9E4FDC018C9190E011C09C0166
:101ED0003327813089F022303105B1F0232B09F00E
:101EE000E5CEE6EEFAE0E4918E2F90E0E6EEFAE041
:101EF000009709F4DBCEABCFE6EDFAE0E4918E2F4C
:101F000090E0E6EDFAE0F4CFE6EAFAE0E4918E2F15
:101F100090E0E6EAFAE0ECCF8330910508F0C6CE17
:101F2000FC01EE0FFF1FE759FE4F0190F081E02DFD
:101F300089E090E08CCF82E190E0E4E9FAE087CF9D
:101F400080917E03811509F467CF853009F464CF51
:101F50008091E80083FD60CF8091E80082FD8BCF07
:101F60008091E80080FF81CF9091F3008091F20092
:101F70002115310519F08830910550F041E008979E
:101F800009F040E08091E8008E778093E8006DCF03
:101F900044914093F1003196215031090196E8CFE8
:101FA000803809F083CE8091E800877F8093E80035
:101FB00080914C038093F1006FCE811177CE009118
:101FC0005003023008F072CE8091E800877F809342
:101FD000E80000934C030E94D007011599F084E0BB
:101FE00080937E0342E061EC81E00E94840C42E039
:101FF00061EC82E00E94840C46E261EC83E00E9486
:10200000840C54CE8091E30087FDE9CF81E0E8CFD6
:10201000EF92FF920F931F93CF937C018B010E944D
:10202000EF07C82F811119C08091E80085FD0DC010
:102030008091E8008E778093E8000E94150D0E9441
:10204000EF07811589F3C82F08C0F70181917F013F
:102050008093F1000150104039F78C2FCF911F91E0
:102060000F91FF90EF900895EF92FF920F931F93BF
:10207000CF93DF9383EF9BE09F938F930E9454074E
:1020800089EE9BE09F938F930E9454078EED9BE017
:102090009F938F930E9454070FE813E00F900F90C7
:1020A0000F900F900F900F90C0E0D0E08DECE82ED5
:1020B0008BE0F82EF80180818115B1F091811F929B
:1020C0009F931F928F9382811F928F93DF93CF9361
:1020D000FF92EF920E945407EDB7FEB73A960FB603
:1020E000F894FEBF0FBEEDBF21960D5F1F4FC031AC
:1020F000D10501F78BEC9BE09F938F930E945407CF
:102100000F900F90DF91CF911F910F91FF90EF9063
:102110000895982F9F779230D1F028F4807891110C
:1021200014C0826408959330A9F09F3761F01F9224
:102130008F9388E59BE09F938F930E9454070F90A5
:102140000F900F900F9080E008958A640895807832
:10215000896408958078886408951F93CF93DF93EE
:10216000EC01E0915603F0915703309709F43FC01A
:10217000188180915A03812B888390918A03892B3F
:1021800088830480F581E02DCE0109951883809124
:10219000630383FF2CC08C81282F082E000C330B87
:1021A0003F938F938B81282F082E000C330B3F9386
:1021B0008F938A81282F082E000C330B3F938F9327
:1021C0008981282F082E000C330B3F938F931F9289
:1021D0001F9385E29AE09F938F930E9454078DB7D7
:1021E0009EB70C960FB6F8949EBF0FBE8DBFDF91C1
:1021F000CF911F910895CF93DF93EC018091470316
:10220000909148038C179D0701F1D0934803C09328
:102210004703E0915603F09157033097B1F00680E1
:10222000F781E02DCE01099580916303857085309B
:1022300061F4DF93CF9387E19AE09F938F930E949D
:1022400054070F900F900F900F90DF91CF9108954A
:10225000CF93DF93EC0180914503909146038C1757
:102260009D0701F1D0934603C0934503E0915603C7
:10227000F09157033097B1F00084F185E02DCE0145
:102280000995809163038570853061F4DF93CF9366
:1022900087E09AE09F938F930E9454070F900F90CE
:1022A0000F900F90DF91CF910895843009F44DC0C5
:1022B00038F4823031F18330B1F1813041F008954A
:1022C000853009F454C0863009F463C008958091C4
:1022D0000601482F460F5527551F860F4F3F5105C2
:1022E0000CF08FEF809306011F928F9385EA95E0A3
:1022F0009F938F930E9454070F900F900F900F9011
:10230000089580910701482F460F5527551F860FC6
:102310004F3F51050CF08FEF809307011F928F9371
:1023200083E995E0E5CF80910401482F460F5527BA
:10233000551F860F4F3F51050CF08FEF809304011E
:102340001F928F9380E895E0D3CF80910301482FAF
:10235000460F5527551F860F4F3F51050CF08FEF45
:10236000809303011F928F938BE695E0C1CF8091FC
:102370000201482F460F5527551F860F4F3F510525
:102380000CF08FEF809302011F928F9382E595E00E
:10239000AFCF80910101482F460F5527551F860F5B
:1023A0004F3F51050CF08FEF809301011F928F93E7
:1023B00087E395E09DCF843009F441C038F4823042
:1023C00011F1833071F1813041F00895853009F4C5
:1023D00044C0863009F44FC0089580910601681703
:1023E00080F4861B809306011F928F9388E295E00C
:1023F0009F938F930E9454070F900F900F900F9010
:10240000089580E0EFCF80910701681740F4861BA4
:10241000809307011F928F9386E195E0E9CF80E0DA
:10242000F7CF80910401681740F4861B8093040164
:102430001F928F9383E095E0DBCF80E0F7CF809110
:102440000301681740F4861B809303011F928F934A
:102450008EEE94E0CDCF80E0F7CF80910201681737
:1024600040F4861B809302011F928F9385ED94E0C8
:10247000BFCF80E0F7CF80910101681740F4861B41
:10248000809301011F928F938AEB94E0B1CF80E09B
:10249000F7CF879A83E091E00197F1F700C0000041
:1024A00087989AEB9A95F1F700C00895879A8AEB7E
:1024B0008A95F1F700C0879883E091E00197F1F7E2
:1024C00000C000000895879A83EF9BE00197F1F721
:1024D00000C000000C945612EF92FF920F931F93CE
:1024E000CF93DF93C0E0D0E090E8E92EF12C082FE5
:1024F00010E0C7010C2E02C0959587950A94E2F76B
:1025000080239123892B69F00E9456122196C830AE
:10251000D10579F7DF91CF911F910F91FF90EF9047
:1025200008950E944912F2CFCF93C82FF8940E94C9
:1025300063128C2F8295807F81600E946C120E94B2
:1025400049128FE193E00197F1F700C00000789401
:10255000CF9108959C017F9B07C083E08A95F1F796
:10256000000021503040B9F7C90108959C017F99BE
:1025700007C083E08A95F1F7000021503040B9F799
:10258000C9010895BF92CF92DF92EF92FF920F930D
:102590001F93CF93DF93C82FD62E7A01D22F30E02E
:1025A00080E0F701E80FF11D87FDFA9510828F5F3B
:1025B000082E001C0008821703069CF3F8940E9462
:1025C00063128C2F8295807F8D298C600E946C1203
:1025D0000E94491288277F9B83958093850384EF0F
:1025E00091E00E94B612892B51F48AE49BE09F93FC
:1025F0008F930E94540778940F900F9007C084EF38
:1026000091E00E94AA12892B61F4789480E0DF9116
:10261000CF911F910F91FF90EF90DF90CF90BF90DF
:10262000089588E290E00E94B612892B19F488E49C
:102630009BE0DDCF84E690E00E94AA12C0E0892BE7
:1026400019F486E49BE0D3CF82E890E00E94B612B2
:10265000BC2EB694B694B6948115D1F06C01DD24ED
:10266000C6010E94AA12811599F0BD1678F4F701EF
:10267000EB0DF11D9081990F22E830E02C193D09F6
:10268000C81AD1082C153D057CF09083C395E1F65E
:1026900078948FE193E00197F1F700C000008C2F50
:1026A000869586958695B3CF9160EFCFAF92BF9216
:1026B000CF92DF92EF92FF920F931F93CF93DF930E
:1026C00000D000D00F92CDB7DEB7D82E90E0FC013D
:1026D000EE0FFF1FE80FF91FE157FC4F028125E0C5
:1026E000BE016F5F7F4F7B01AB0160E00E94C212B1
:1026F000182F80E0123008F453C11F920F931F92DD
:10270000DF9285E99BE09F938F930E9454070F907F
:102710000F900F900F900F900F9067018FE8A82EE9
:102720008BE0B82EF60181916F011F928F93BF92BB
:10273000AF920E9454078C2D8E190F900F900F901E
:102740000F90811778F38CE89BE09F938F930E9402
:10275000540789819A810F900F900C3429F5582FD6
:10276000507486FB442740F9392F30742B8122FFA7
:1027700015C08F77898320FF13C09F779A8388E8DD
:1027800021FD88E051110EC08B8320E0311521F02E
:102790008B8187608B8321E013E071C08068EACF72
:1027A0009068ECCF8067F0CF0D34C9F48B81282F6F
:1027B00097FF11C020682B8387FF0FC090689A8312
:1027C000FE01E10FF11D208126FB442740F922FB89
:1027D000222720F954C02F77EECF9F77F0CF023415
:1027E00091F596FB222720F986FB442740F9143007
:1027F00009F43EC186FB442740F9692F607496FBBB
:10280000222720F93B81532F5295550F507E732F6D
:102810007295707F5723F82F57FBF7F9F98331FB37
:10282000552757F99F77952B9A83379533273795F7
:1028300086FF0EC180E7382B8FE0611101C088E070
:10284000382B3B83A9CF0F3209F0BDC0123009F0FD
:10285000C1C029813A813227232732272078307856
:10286000232B09F0ADC0282F20682983392F3F770B
:1028700096FB222720F986FB442740F93A83F7018B
:10288000E10FF11D98EF38E8153009F0F3C08D81A4
:10289000222783FF239527952227279587FF2064EA
:1028A000AC81A3FF2062A7FF20616B8163FF2860DA
:1028B00067FF24603A8137FF2260798177FF2160CA
:1028C00020938A03EA2FF0E090E018E0619FA001D6
:1028D00011244078537010E4A19FD0011124AA273D
:1028E000BC714A2B5B2B7F77472BDC01BA2FAA27C1
:1028F000BB0FAA27B07E4A2B5B2B3F77982F8827E8
:102900009295990F907E832B30E8639FB00111243C
:1029100060787370862B972BFE2FEE27FF0FFF0F2B
:10292000EE27FC718E2B9F2B382F792F81386FEF7C
:1029300096070CF0ACC031E87FEF642FE52F4138EB
:10294000BFEF5B070CF0AAC061E8EFEF10928603BF
:1029500010928703109288031092890310928D03BE
:1029600030938B0360938C031F921F925F934F935E
:10297000EF936F939F938F937F933F931F922F9328
:1029800089E69BE09F938F930E9454078AE893E027
:102990000E94AD100FB6F894DEBF0FBECDBF81E030
:1029A0000F900F900F900F900F90DF91CF911F918C
:1029B0000F91FF90EF90DF90CF90BF90AF90089570
:1029C000392F306855CF0F3511F0063641F51230EA
:1029D00009F446C086FB442740F9692F607496FBD2
:1029E000222720F93B81582F30FB57F9598331FBBF
:1029F000552757F99F77952B9A8332FB992797F99B
:102A00003870932B86FF09C080E7892B97E061110E
:102A100001C090E0892B8B83BFCE80E0F6CF0330DE
:102A2000C9F486FB442740F9692F607496FB22277E
:102A300020F93B81582F30FB57F9598332FB55273A
:102A400057F99F77952B9A8331FB332737F9F0CECF
:102A500080E0F1CE043009F4B3CE023309F4B0CEF5
:102A600086FB442740F996FB222720F990689A8339
:102A700012E005CF411109C03083211519F0808182
:102A8000876080831F5F3196FFCE9083F6CF8038BA
:102A900091050CF452CF3FE770E04FCF403851051D
:102AA0000CF454CF6FE7E0E051CFCF93DF93CDB775
:102AB000DEB728970FB6F894DEBF0FBECDBF28E073
:102AC000AE014F5F5F4F0E94C212823071F4898164
:102AD0009A8198278927982728960FB6F894DEBF01
:102AE0000FBECDBFDF91CF91089580E090E0F4CF8D
:102AF000EF92FF920F931F93CF93DF9383EC9BE0B2
:102B00009F938F930E9454070F900F90C1E0D0E0E5
:102B100086EBE82E8BE0F82E63E08C2F0E94551593
:102B20008C01009771F01F938F93DF93CF93FF92E7
:102B3000EF920E9454070F900F900F900F900F90FC
:102B40000F902196C031D10539F784EB9BE09F931C
:102B50008F930E9454070F900F90DF91CF911F9198
:102B60000F91FF90EF9008951F93CF93DF93182F4D
:102B700060E00E945515EC01009751F1DF938F93AF
:102B80001F921F938CE49BE09F938F930E945407A6
:102B90008D2F99270F900F900F900F900F900F90FF
:102BA0008F3F910529F00E94891081110E945D07D5
:102BB000CE0199278F3F910531F08C2F0E9489100B
:102BC00081110E945D0781E0DF91CF911F910895EF
:102BD00080E0FACF1F93CF93DF93182F2091190134
:102BE00030911A018FEF9FEF90931A018093190192
:102BF0002F3F320791F560E0812F0E945515EC01BF
:102C0000892B29F480E0DF91CF911F910895812FC6
:102C100090E0DF93CF93FC01EE0FFF1FE80FF91F49
:102C2000E157FC4F81811F928F931F921F9383EA7C
:102C30009BE09F938F930E9454078DB79EB7089691
:102C40000FB6F8949EBF0FBE8DBFCF37DC07A1F53E
:102C50008FE70E945D0781E0D6CF2115310591F203
:102C6000E9012F373F47A1F3DF3F19F08C2FCD2F1C
:102C7000D82F812F90E0FC01EE0FFF1FE80FF91F06
:102C8000E157FC4F81810E947707813029F58C2F15
:102C90008F778233E1F4C078CA608C2F0E945D0781
:102CA000DF3FC9F28D2F90E0982F88278F6F909388
:102CB0001A0180931901CFCFCF3FDC07A9F68FEF20
:102CC0000E945D070E9478150E943410C4CF8A309C
:102CD00039F4C078C263E1CF8230F9F68C2F8F7758
:102CE0008A32D9F6C078C067D8CFFF920F931F936E
:102CF000CF93DF93C82FF62E8A01D22FF8940E942B
:102D000063128C2F8295807F8F2988600E946C12BD
:102D10000E94491288277F9B83958093850384EFC7
:102D200091E00E94B6128FE193E00197F1F700C0A5
:102D300000000E945612CD2FD0E0F12CF801EF0DCB
:102D4000F11DF7FCFA9580810E946C12F3940F2C10
:102D5000001C0008FC160D068CF30E9449127894A2
:102D60008FE193E00197F1F700C00000DF91CF9170
:102D70001F910F91FF900895CF93DF9300D0CDB7AF
:102D8000DEB749832A8322E0AE014F5F5F4F0E9486
:102D900075160F900F90DF91CF910895CF93DF9329
:102DA000D82FC62F62E00E945515492FEFE3F6E0B9
:102DB0003197F1F700C00000887FC770282F2C2BB7
:102DC00062E08D2FDF91CF910C94BC162F923F9231
:102DD0004F925F926F927F928F929F92AF92BF922B
:102DE000CF92DF92EF92FF920F931F93CF93DF93D7
:102DF000CDB7DEB764970FB6F894DEBF0FBECDBF78
:102E0000F090000120917D0230917E024FB7F8943E
:102E10008091800390918103A0918203B0918303FC
:102E20004FBF821B930B0B9708F520917A023091CC
:102E30007B024FB7F8948091800390918103A09119
:102E40008203B09183034FBF821B930B883E934054
:102E500008F4A9C00E94210990937B0280937A0212
:102E6000AA24A394B12CF12C5A2C92C10E942109BE
:102E700090937E0280937D02312C4E0189E0880E72
:102E8000911C9F2D9F70592E911509F46AC0C92E6F
:102E9000D12C7601EE0CFF1CF701EC0DFD1DE15766
:102EA000FC4F8081833009F454C008F047C081157D
:102EB00009F492C0823009F448C028E0A40160E01F
:102EC000852D0E94C212482E811509F446C0F701D3
:102ED000EC0DFD1DE157FC4F82811F928F93DF9215
:102EE000CF928EE593E09F938F930E9454070F90AB
:102EF0000F900F900F900F900F905401E8E5EE2E79
:102F0000E3E0FE2EF50181915F011F928F93FF9206
:102F1000EF920E9454078A2D88190F900F900F90FE
:102F20000F90841578F385E593E09F938F930E942B
:102F300054070F900F90332433940FC0873009F05B
:102F4000BCCF892F0E94B41507C0892F0E94EA15B3
:102F500003C0892F0E945613382E80918503811556
:102F600039F0FF24F394F50C50900001F51089CF4F
:102F7000852D8F708093000180917C0281113BC070
:102F80000E94AE07811106C08FE70E945D0781E0B5
:102F900080937C02311409F448CF0E942109909358
:102FA0007B0280937A0264960FB6F894DEBF0FBE60
:102FB000CDBFDF91CF911F910F91FF90EF90DF90E8
:102FC000CF90BF90AF909F908F907F906F905F90C9
:102FD0004F903F902F900895E3E09E1741F0F7E067
:102FE0009F1739F022E09213BCCF82E0AFCF83E08D
:102FF000B1CF87E0A7CF0E94AE07811559F28FEFBE
:103000000E945D0710927C02C5CF9C899F93EB893B
:10301000EF93BF92AF928FE393E09F938F930E94C1
:103020005407EFE8F3E00F900F900F900F900F9080
:103030000F905FE0E52EF12C85A58115A9F021E028
:10304000E21AF108339787E0E816F104A9F7BF9276
:10305000AF92E8E2F3E0FF93EF930E9454070F90E2
:103060000F900F900F90ACC0DE2CE11481F34C89CF
:10307000407F4E292EEF63E0852D0E94BC1663E051
:103080008E2D0E945515898B9A8B89899A89892B57
:1030900029F4BF92AF92E4E1F3E0DDCF4701880C61
:1030A000991CF401EE0DFF1DE157FC4F50828989F8
:1030B00081838283EA89EF93F989FF93FF92EF92EC
:1030C000BF92AF9288EF92E09F938F930E94540734
:1030D0000FB6F894DEBF0FBECDBF92E05912C1C04B
:1030E00063E08E2D0E9455153C01009769F4FF9214
:1030F000EF9285EB91E09F938F930E9454070F907E
:103100000F900F900F9042C07F928F93FF92EF929B
:103110008FE991E09F938F930E945407862D0E9420
:1031200077070F900F900F900F900F900F908115D1
:1031300009F491C0813009F091C08CE291E09F9335
:103140008F93FF92EF928DE891E09F938F930E946F
:10315000540723E0472D63E08D2D0E94BC1663E0E9
:103160008D2D0E945515F401EE0DFF1DE157FC4F0A
:1031700082830E949808682F60958D2D0E94CE163C
:103180000F900F900F900F900F900F90FF24F394DB
:1031900063E0852D0E9455158B8B9C8B8B899C89B8
:1031A000892B09F032CFF501EE0FFF1FEA0DFB1D51
:1031B000E157FC4F8081811529F010821182128223
:1031C000FF24F3948FEFA81AB80A98E0A916B10467
:1031D00009F04ACE0FE813E0E12C63E08A2D0E944B
:1031E0005515892B81F4F801808D811561F0F50169
:1031F000EE0FFF1FEA0DFB1DE157FC4F10821182FD
:103200001282EE24E394FFEFAF1ABF0A0D5F1F4F47
:1032100020E1A216B10409F7F11003C0E11409F48A
:10322000C2CE64960FB6F894DEBF0FBECDBFDF915D
:10323000CF911F910F91FF90EF90DF90CF90BF90B3
:10324000AF909F908F907F906F905F904F903F9046
:103250002F900C94341087E291E071CF80E391E0DD
:103260006ECFE3E05E1283C163E08E2D0E945515A0
:103270008C01009729F4FF92EF928AEC92E03BCF09
:103280001F938F93FF92EF9284EB92E09F938F9323
:103290000E945407C02E0F900F900F900F900F9028
:1032A0000F90FFE20F1749F02FE5021731F086E685
:1032B000081719F092E409131BC080911B0190912B
:1032C0001C01A0911D01B0911E0189839A83AB83DB
:1032D000BC8324E0AE014F5F5F4F61E08D2D0E9403
:1032E0007516F401EE0DFF1DE157FC4FC2824ECF63
:1032F0008FEF800F823008F04BC024E0412F63E055
:103300008E2D0E94BC1663E08E2D0E9455158C01F7
:10331000843009F440C023E0412F63E08E2D0E94E9
:10332000BC1663E08E2D0E9455158C01C82EE3E07B
:103330008E1307C027E040E062E08E2D0E94BC168D
:10334000D0CFF1E08F131CC022E0412F63E08E2D1F
:103350000E94BC1663E08E2D0E9455158C01C82E6C
:1033600021E082130DC0FF92EF928DE992E09F93CE
:103370008F930E9454070F900F900F900F90B1CF32
:1033800082E0C81205C0FF92EF9286E892E0EFCF8C
:1033900094E0C91284C019821A821B821C821D8289
:1033A0001E8228E0AE014F5F5F4F61E08D2D0E94CD
:1033B000C2124980CA802B803C80863008F447C006
:1033C0002D813E8132272327322798851F928F93A4
:1033D0001F929F933F932F931F929F938F811F92D2
:1033E0008F938E811F928F938D811F928F931F9247
:1033F0003F921F922F921F92CF921F924F92FF9255
:10340000EF928BE392E09F938F930E9454070FB645
:10341000F894DEBF0FBECDBFFBE44F1260C02DE4B9
:10342000C2121AC08CE428129DC091E339129AC0CE
:10343000FF92EF9285E292E09F938F930E94540750
:103440000F900F900F900F9034E0C32E4ACF81154C
:1034500019F324E630E0B9CFEFE4CE1283C0F9E4EB
:103460002F1280C024E532127DC08D2D0E9494124F
:1034700022E4412F63E08D2D0E94BC1663E08D2D68
:103480000E945515C82EFF92EF9281E192E09F9322
:103490008F930E9454070F900F900F900F90F2E3BC
:1034A000CF121FCFFF92EF9286EC91E09F938F9304
:1034B0000E94540788E0EFE1F1E0DE0111960190EF
:1034C0000D928A95E1F78D2D0E94941228E0AE01AD
:1034D0004F5F5F4F62E08D2D0E9475164CCF8AE9D9
:1034E00048122BC080EE8C0D8230E0F5FF92EF92F7
:1034F00081E092E09F938F930E94540721E840E07F
:1035000061E08D2D0E94BC1621E841E061E08D2D27
:103510000E94BC1621E842E061E08D2D0E94BC169D
:1035200028E343E061E08D2D0E94BC160F900F90C0
:103530000F900F902CE4C22ED4CE9CE4491212C0FE
:10354000E4E5CE120FC0FF92EF9288EE91E09F93D8
:103550008F930E9454070F900F900F900F909DE44F
:10356000C92EBFCEFF92EF9288ED91E065CF27E0A4
:1035700052120CCEFF92EF928BED92E0BCCDCF9326
:10358000DF93D82FC92F80917E03843051F581E0DD
:103590008093E90080E89091E80095FD08C0EFE392
:1035A000F1E03197F1F700C000008A95A1F7809112
:1035B000E80085FF16C040E050E068E070E08D2F25
:1035C0009C2F0E9408108091E8008E778093E8007D
:1035D00088E0ED2FFC2FA6E7B3E001900D928A95CD
:1035E000E1F7DF91CF91089520917E03243041F5DA
:1035F00022E02093E9002FEF3091E80035FD06C06E
:1036000035ED3A95F1F700002A95B1F72091E800E1
:1036100025FF08952091180140E050E063E070E03C
:10362000211539F021E02093F10040E050E065E001
:1036300070E00E9408108091E8008E778093E80087
:103640000895CF93DF9300D00F92CDB7DEB79C01E2
:1036500080917E03843071F580911801811551F1BC
:103660001B821A8282E089832138310520F020589C
:1036700031093B832A8382E08093E9008FEF9091A8
:10368000E80095FD06C095ED9A95F1F700008A9542
:10369000B1F78091E80085FF0DC040E050E063E0A5
:1036A00070E0CE0101960E9408108091E8008E77AC
:1036B0008093E8000F900F900F90DF91CF910895C5
:1036C000CF93DF9300D00F92CDB7DEB720917E036A
:1036D000243039F520911801211519F123E02983AF
:1036E0008A839B8382E08093E9008FEF9091E800CA
:1036F00095FD06C095ED9A95F1F700008A95B1F712
:103700008091E80085FF0DC040E050E063E070E08C
:10371000CE0101960E9408108091E8008E77809378
:10372000E8000F900F900F90DF91CF9108950F93C5
:103730001F93CF93DF9390910C0380910B03982BF1
:103740009093720180910203811581F0892B8093FF
:103750007201E3E7F1E080E0919191118F5F91E0D8
:10376000EA37F907C9F7811110920203E091560375
:10377000F09157033097A1F10280F381E02D82E7A9
:1037800091E009958091630382FF2AC080FF04C005
:1037900083E199E00E94BB06C2E7D1E00DE019E0A9
:1037A0008091630380FF0BC088811F928F931F93CA
:1037B0000F930E9454070F900F900F900F90219637
:1037C00081E0CA37D80761F78091630380FF08C0A2
:1037D0008BE099E0DF91CF911F910F910C94BB0684
:1037E000DF91CF911F910F910895811539F090913C
:1037F0000C03892B80930C030C94971B089581155F
:1038000041F0809590910C03892380930C030C94D4
:10381000971B08958091630383FF7EC088E698E03C
:103820000E94BB0680915A031F928F9383E698E013
:103830009F938F930E94540781E698E00E94BB06F5
:1038400080915B03282F082E000C330B3F938F933E
:103850008EE598E09F938F930E9454078CE598E043
:103860000E94BB0680915C03282F082E000C330BAE
:103870003F938F9389E598E09F938F930E9454071D
:1038800087E598E00E94BB0680915D03282F082EF3
:10389000000C330B3F938F9384E598E09F938F93B5
:1038A0000E94540782E598E00E94BB0680915E0367
:1038B000282F082E000C330B3F938F938FE498E052
:1038C0009F938F930E9454078CE498E00E94BB065C
:1038D00080915F031F928F9389E498E09F938F9369
:1038E0000E94540787E498E00E94BB068091FF0283
:1038F0001F928F9384E498E09F938F930E945407C4
:1039000081E498E00E94BB068DB79EB74C960FB637
:10391000F8949EBF0FBE8DBF8AE593E00E94AD1064
:103920000E94210990936103809360030895CF93CF
:10393000DF93811509F45EC09EE7980F933028F558
:10394000D2E0C9E3823831F0D1E0C3E5833811F029
:10395000D4E0C7E40E9498088D23811509F44AC079
:103960008C2F0E94F2080E94971B2FEF41EE54E02B
:10397000215040405040E1F700C000008C2F0E94D1
:103980000B09DF91CF910C94971B9CEF980F913A04
:10399000B0F390E2980F983088F4877021E030E01F
:1039A000A90102C0440F551F8A95E2F7CA0180950C
:1039B00090910C03892380930C03E3CF9BE5980F30
:1039C000933030F480E090E0DF91CF910C94FB10C5
:1039D00098E5980F973130F480E090E0DF91CF9137
:1039E0000C942811803F30F00E94100CDF91CF9191
:1039F0000C940A1CDF91CF91089510920C03109241
:103A00000B030E9417090E94971B85E0EAE5F3E08B
:103A1000DF011D928A95E9F710925F031092FF0271
:103A20000E940A1C80E090E00E94FB1080E090E081
:103A30000C942811CF93C82F1F928F938CE693E09C
:103A40009F938F930E94540781E090E0A0E0B0E044
:103A500004C0880F991FAA1FBB1FCA95D2F7809375
:103A6000030390930403A0930503B09306030F9000
:103A70000F900F900F90CF910C94FD1C8A3258F448
:103A8000863098F0EAEFE80FE43278F4F0E0EE5C8C
:103A9000F94F0C942F29833470F48A3308F0DBC07B
:103AA000853309F4D2C08833E1F087E496E00E94C0
:103AB000BB0680E00895833409F4C7C08834A9F7B1
:103AC0000E94FD1C8CE298E00E94BB062FEF83ED64
:103AD00090E3215080409040E1F700C000000E9438
:103AE000170A84EB95E00E94BB0610C08091630327
:103AF000807F809363038EE199E00E94BB068DE393
:103B000098E00E94BB0681E08093010381E0089564
:103B10008091630380FF0AC08FE198E00E94BB069A
:103B200080916303807F80936303F0CF83E198E00B
:103B30000E94BB06809163038160F5CF909163037F
:103B4000892F8D7F91FF82608093630381FF03C083
:103B500086E098E0EDCF88EF97E0C5CF90916303C2
:103B6000892F8B7F92FF84608093630382FF03C061
:103B700089EE97E0DDCF89ED97E0B5CF90916303B3
:103B8000892F877F93FF88608093630383FF03C03F
:103B90008DEC97E0CDCF80EC97E0A5CF81EB97E05F
:103BA0000E94BB068EE897E00E94BB0689E497E07E
:103BB0000E94BB0683E297E00E94BB068EED96E072
:103BC0000E94BB0682EB96E08ECF84EA96E00E94CC
:103BD000BB060E9498081F928F938AE896E09F93F5
:103BE0008F930E945407809105011F928F9383E762
:103BF00096E09F938F930E94540780914A031F92EF
:103C00008F9380E696E09F938F930E9454072FB77F
:103C1000F8948091800390918103A0918203B091E8
:103C200083032FBFBF93AF939F938F9389E496E055
:103C30009F938F930E9454078DB79EB742960FB6FD
:103C4000F8949EBF0FBE8DBF61CF80E00E941A1D09
:103C50005DCF8D51FBCF8953F9CF8FEB93E00E945D
:103C6000BB061F9281E08F931F9285E08F9381E7BF
:103C700093E09F938F930E9454070F900F900F90A3
:103C80000F900F900F900895CF93DF93C82F811559
:103C900009F46EC08EE78C0F833030F5C238F1F036
:103CA000C338F9F4D1E0C3E50E9498088D2381114F
:103CB0005FC08C2F0E94F2080E94971B2FEF81EEAD
:103CC00094E0215080409040E1F700C000008C2F2C
:103CD0000E940B09DF91CF910C94971BD2E0C9E3AE
:103CE000E3CFD4E0C7E4E0CF8CEF8C0F813A08F04B
:103CF0002DC180910103813089F08230E1F1811181
:103D00002BC08091CE0387FF05C08C2F0E943E1DE3
:103D100081112EC08C2F0E94F208DCCF8091CE033F
:103D200087FDF3CFC431C1F048F4CB3059F0C03136
:103D3000B1F085E499E00E94BB06ECCFC93261F096
:103D4000C833B9F78EE199E00E94BB068BE499E095
:103D5000DF91CF910C94BB0610920103DBCF0E9440
:103D60002D1E87E499E00E94BB0682E08093010348
:103D7000DF91CF910895C93209F440C038F5C331BD
:103D800009F449C040F4C73009F4C6C0CB3099F1FA
:103D900084EF99E0DDCFC43189F182EE8C0F86305B
:103DA000B8F7CD51C093000380910003811509F449
:103DB000CAC01F928F938EEE99E09F938F930E94BB
:103DC00054070F900F900F900F90D2CFCE3409F47C
:103DD000A1C050F4C83379F06AE0CB34C9F68091C1
:103DE00000030E945511E0CFC13509F48DC061E098
:103DF000C235A9F3CDCF0E942D1ED6CF80910003EE
:103E0000811519F010920003CFCF83E09AE00E9451
:103E1000BB0681E0ABCF8DED99E00E94BB068BEC39
:103E200099E00E94BB06809106011F928F9388EC57
:103E300099E09F938F930E94540786EC99E00E942B
:103E4000BB0684EB99E00E94BB06809107011F929C
:103E50008F9381EB99E09F938F930E9454078FEA91
:103E600099E00E94BB0680EA99E00E94BB0680911F
:103E700004011F928F938DE999E09F938F930E9485
:103E800054078BE999E00E94BB068AE899E00E94FA
:103E9000BB06809103011F928F9387E899E09F935F
:103EA0008F930E94540785E899E00E94BB0680E743
:103EB00099E00E94BB06809102011F928F938DE6CC
:103EC00099E09F938F930E9454078BE699E00E949C
:103ED000BB0684E599E00E94BB06809101011F9218
:103EE0008F9381E599E09F938F930E9454078FE40D
:103EF00099E00E94BB068DB79EB748960FB6F8941E
:103F00009EBF0FBE8DBF50CF61E0809100030E9425
:103F1000DB114ACF6AE0F9CF8EE18093060182E39C
:103F2000809307018AE08093040184E18093030178
:103F300088E08093020188E28093010186EF99E096
:103F40000E94BB0631CF8BEE99E002CF80E28C0F4E
:103F5000883068F4C77021E030E001C0220FCA95B4
:103F6000EAF780910C03822B80930C03B3CE8BE590
:103F70008C0F833070F481E890E0C53A31F082E82C
:103F800090E0C63A11F083E890E0DF91CF910C9475
:103F9000FB10E8E5EC0FE73178F480E790E0E631DC
:103FA00039F0F0E0EE0FFF1FEC5CFE4F8081918155
:103FB000DF91CF910C942811CF3B69F40E94FD1C36
:103FC0009FEF20E782E0915020408040E1F700C061
:103FD00000000E94170AC03F08F4CACE8C2F0E942E
:103FE000BE0BDF91CF910C940A1CCF92DF92EF921F
:103FF000FF920F931F93CF93DF9300D000D00F92C7
:10400000CDB7DEB76C0185E0F601DE0111960190B7
:104010000D928A95E1F7F60183819481892B09F449
:104020008CC08181908189238F3F09F486C00281F1
:10403000F580F2949FE0F92249815A816B817C815D
:104040008D810E94570A182FE92FE295EF70903F5B
:1040500008F073C0F0E0EA5AF94F0C942F29F92FB9
:10406000FF70FF2E903118F0F29480EFF8220115C6
:10407000C9F0F11439F080910B038F2980930B0361
:104080000E94971B812F0F900F900F900F900F9011
:10409000DF91CF911F910F91FF90EF90DF90CF9024
:1040A0000C94441E812F0E94971CF11409F445C002
:1040B000F09480910B038F2180930B030F900F904E
:1040C0000F900F900F90DF91CF911F910F91FF9064
:1040D000EF90DF90CF900C94971B892F8F70907F7B
:1040E000903211F08295807F111579F0113009F42A
:1040F00049C0011509F456C0F11459F0F601958133
:1041000090FFA9C19F70958304C0011521F1F110A2
:104110000FC00F900F900F900F900F90DF91CF91E5
:104120001F910F91FF90EF90DF90CF900C94F51BB3
:1041300021E0F212EECF809302030F900F900F90C8
:104140000F900F90DF91CF911F910F91FF90EF9003
:10415000DF90CF900895F11011C0109202030F90DC
:104160000F900F900F900F90DF91CF911F910F91B3
:10417000FF90EF90DF90CF900C94FF1B91E0F91629
:10418000E1F2EBCF011551F0E6E0FE16B0F69091AA
:104190000C039823911509F4BCCFE1CFF5E0FF168D
:1041A00060F6DDCFF114D9F2812F0F900F900F90B0
:1041B0000F900F90DF91CF911F910F91FF90EF9093
:1041C000DF90CF900C94971C892F869586958370ED
:1041D0008115C1F0813009F0B0CF812F93700111AA
:1041E00002C080E090E00F900F900F900F900F9022
:1041F000DF91CF911F910F91FF90EF90DF90CF90C3
:104200000C942811812F9370011102C080E090E07E
:104210000F900F900F900F900F90DF91CF911F9103
:104220000F91FF90EF90DF90CF900C94FB10011551
:1042300089F00E94BE0B0F900F900F900F900F907F
:10424000DF91CF911F910F91FF90EF90DF90CF9072
:104250000C940A1C0E94100CEECF892F83708111E0
:1042600072C001116ACF812F829586958770880F61
:10427000880F212F2F70C22ED12CE12CF12C082E6B
:1042800004C0CC0CDD1CEE1CFF1C0A94D2F740E0ED
:1042900050E0BA0114FF0FC04FE050E060E070E062
:1042A00004C0440F551F661F771F8A95D2F74095AB
:1042B000509560957095292F2695269523708091AD
:1042C000030390910403A0910503B09106032230EB
:1042D000F1F0233029F1213089F04C295D296E2934
:1042E0007F2984239523A623B723809303039093E8
:1042F0000403A0930503B09306031FCF8C299D29C7
:10430000AE29BF29842B952BA62BB72BEECF4C299A
:104310005D296E297F2984279527A627B727E5CF12
:1043200084239523A623B723AC01BD014C295D2925
:104330006E297F2940930303509304036093050380
:1043400070930603FACE011509F44DC090FFF5CE27
:10435000812F829586958770880F880F212F2F7067
:10436000C22ED12CE12CF12C082E04C0CC0CDD1C6B
:10437000EE1CFF1C0A94D2F740E050E0BA0114FF93
:104380000FC04FE050E060E070E004C0440F551FE4
:10439000661F771F8A95D2F7409550956095709566
:1043A000292F269526952370809107039091080365
:1043B000A0910903B0910A03223011F1233049F191
:1043C0002130A9F04C295D296E297F29842395236A
:1043D000A623B7238093070390930803A0930903B0
:1043E000B0930A03AACE823008F4A7CEB1CF8C29AD
:1043F0009D29AE29BF29842B952BA62BB72BEACF5D
:104400004C295D296E297F2984279527A627B72760
:10441000E1CF84239523A623B723AC01BD014C290A
:104420005D296E297F294093070350930803609309
:10443000090370930A0381CE813F09F46EC0C8F569
:10444000803EC8F4803C08F04AC0011509F49EC0C3
:10445000F11409F498C0812F0E94441E193309F009
:104460008BC0FFEF21EE84E0F15020408040E1F767
:1044700000C0000062CE803F41F7011509F44AC038
:10448000E5E0FE1608F059CE9F7141E050E060E093
:1044900070E004C0440F551F661F771F9A95D2F72E
:1044A0008091070390910803A0910903B0910A033A
:1044B000ABCF823F09F444C0833F39F6011509F4BC
:1044C00052C0292F2F7181E090E0A0E0B0E004C03D
:1044D000880F991FAA1FBB1F2A95D2F77BCF892F60
:1044E0008F71912F9071F92E011551F00E94AE0835
:1044F000812FF11419F08295807F0BCE8F7009CE39
:104500000E94CE08812FF11419F08295807F27CE6A
:104510008F7025CEF6E0FF16B5CF892F8F7101156C
:1045200099F00F900F900F900F900F90DF91CF9117
:104530001F910F91FF90EF90DF90CF900C94AE08F9
:10454000892F8F71011569F30F900F900F900F90C5
:104550000F90DF91CF911F910F91FF90EF90DF901F
:10456000CF900C94CE08109207031092080310927B
:10457000090310920A03E1CD133509F472CF173401
:1045800009F0DBCD6ECF892F8F71CBCFF1100CCE20
:10459000892F8F71D9CF8111D0CD011509F4CDCDDF
:1045A0000E94FD1C2FEF80E792E021508040904058
:1045B000E1F700C000000E94170A0F931F93CF93EA
:1045C000809144038031A8F480914103811589F0E2
:1045D000E0910E0360910D0350913F034091400321
:1045E0002091420330914303742F7523C6E06E136C
:1045F00004C0CF911F910F9108950E2F10E0211547
:10460000310591F17F3F81F1CE9FF0011124DF014F
:10461000A15FBC4F11968C911197841325C08C918A
:10462000851322C012968C91129781111DC013968A
:104630008D919C91821B930B883C9105A8F48091ED
:1046400044038F70806180934403EC5EFC4F808153
:104650008F70806180838FE393E00E94F51FCF917C
:104660001F910F910C94A408F8013196E770BFCF09
:104670008F929F92AF92BF92DF92EF92FF920F9331
:104680001F93CF93DF93CDB7DEB72B970FB6F89478
:10469000DEBF0FBECDBF8C0185E0F801DE011796AD
:1046A00001900D928A95E1F7F801F2808FE3882E50
:1046B00083E0982E60914203709143036115710568
:1046C00009F422C130913F0340914003842F83239A
:1046D0008F3F09F419C120819181A380B480D090CB
:1046E0004103F501E61BF70BD11409F4D4C0809106
:1046F0004403E83CF10508F0B1C0803108F07AC00D
:10470000EF2C491311C032130FC0F11009C18F7083
:10471000806180934403C4010E94F51F809144038B
:10472000F8018583E12C4FC0AB2809F45FC0892FC5
:1047300082238F3F09F45AC0E0910E0380910D034C
:1047400036E0F114C9F08091440381608093440302
:10475000E9CF4E2F50E03E9FF0011124E15FFC4F66
:104760006181961306C06081261303C062816111C6
:10477000D9CFFA013196E770E813EBCF4F81588516
:1047800069857A858B850E94570A292F22952F707B
:10479000903248F49F70911511F08115A1F0805E60
:1047A000883088F004C0225F2F70223028F0C801C2
:1047B0000E94F51FED2C07C09F70911581F3F80141
:1047C0009581903160F78E2D2B960FB6F894DEBF51
:1047D0000FBECDBFDF91CF911F910F91FF90EF9052
:1047E000DF90BF90AF909F908F900895F11409F4DF
:1047F00099CFA9CF491306C0321304C0F801F114B0
:1048000009F463C04F81588569857A858B850E943C
:10481000FB0A811509F474C0F11409F471C0809188
:104820004403803270F020913F03309140033A837B
:1048300029831B82BD82AC828E83CE0101960E94A9
:10484000F51F86E0F801AFE3B3E001900D928A9581
:10485000E1F70E94DD22EE24E394B5CF803150F4DD
:104860008FE393E00E94F51F86E0F40111928A9590
:10487000E9F758CF4913C6CF3213C4CFF110C2CFD6
:10488000F8018583C8010E94F51F86E0F4011192AA
:104890008A95E9F7E0CFE83CF10530F7F11481F1B2
:1048A000491320C032131EC08091440380FD11C003
:1048B000803178F0F8018583807F803F39F08581F1
:1048C000982F907F905F8F70892B8583C8010E94FD
:1048D000F51F86E0F801AFE3B3E001900D928A95F1
:1048E000E1F7B9CF4F81588569857A858B850E941C
:1048F000FB0A8111A6CF8091440381608093440319
:10490000C8010E94F51FA7CFF114D1F34F8158853C
:1049100069857A858B850E94FB0A811589F391CF81
:10492000AB2809F004CF0FCF1F93CF93DF93CDB700
:10493000DEB767970FB6F894DEBF0FBECDBF4B8BC7
:104940005C8B6D8B7E8B8F8B1A8A85E0FE01739654
:10495000DE011D9601900D928A95E1F786E0FE0139
:104960003D96DE01179601900D928A95E1F7CE01F2
:1049700007960E94382381112EC020910D0330919B
:104980000E0386E0FE013796DE01119601900D922E
:104990008A95E1F78A859B85892BE9F088859F8137
:1049A00089238F3FC1F0822F90E00196877099276D
:1049B0003817190609F196E0929FD0011124A15FE2
:1049C000BC4FFE01319601900D929A95E1F78093CC
:1049D0000D030E94A40816E080910E0390910D0330
:1049E000891318C067960FB6F894DEBF0FBECDBF0F
:1049F000DF91CF911F9108950E94FD1C10920D032D
:104A000010920E0386E0EFE3F3E0DF011D928A953A
:104A1000E9F7E1CF189FC0011124815F9C4F0E94EC
:104A200038238115F9F280910E0390E0019687708A
:104A3000992780930E03D0CFCDB7DEB765970FB619
:104A4000F894DEBF0FBECDBF84B7877F84BF0FB69B
:104A5000F894A8958091600088618093600010921E
:104A600060000FBE80E890E00FB6F894809361007C
:104A7000909361000FBE8DE299E090937101809355
:104A8000700188E091E090935703809356038DE284
:104A90009BE00E94BB060E9479080E94B40C7894A7
:104AA00082E084BD93E095BD9AEF97BD80936E0040
:104AB00080917E03843009F064C10E94B40781159F
:104AC00009F45FC18BE19BE00E94BB068091630308
:104AD0008160809363038FEB93E0EFE8F3E0108253
:104AE0001182128233968E179F07C9F7EFEBF3E01E
:104AF00080E1DF011D928A95E9F7569A5E9A8F98B8
:104B00008798899A8198879AEFEDFEE23197F1F7BD
:104B100000C0000087980E947815569A5E988DE034
:104B20009BE00E94BB064BE2442E41E0542E5AEE1D
:104B3000252E5AE0352E77247A9480917E03853095
:104B400009F422C10E94E61624E6C22E23E0D22EEA
:104B50003FEBA32E33E0B32EF12CD501ED905D0198
:104B6000F60161906F016E1409F45DC080916303DA
:104B700081FF30C085EF9AE00E94BB069FEB892E33
:104B800093E0992E00E010E0D4019D914D019295A3
:104B9000892F880F880F8C7C969596959373892B17
:104BA000982F990F9A7A86958575892B5F924F92E7
:104BB0001F928F931F930F933F922F920E9454073F
:104BC0000F5F1F4F0FB6F894DEBF0FBECDBF003191
:104BD0001105D1F66E24812C9924939486010150FD
:104BE0001109862D89218115C9F08982FA8291E007
:104BF0008E2D8921811101C090E09B830E942109A3
:104C00008160782F9D838C8349815A816B81892FA4
:104C10000E949424D8018C9189258C938394990CBB
:104C2000B8E08B12DECFF394E0E1FE1296CF7982EA
:104C30007A821B820E9421098160782F9D838C8358
:104C400049815A816B81892F0E94942420916003AD
:104C5000309161034FB7F894809180039091810364
:104C6000A0918203B09183034FBFAC01421B530B51
:104C700080915F032091070130E0811106C02091EF
:104C80000601FAE02F9F900111244217530778F094
:104C900090915B0300915C03F0905D03E0905E03F4
:104CA0009111ABC0202F2F292E29211169C10E94FB
:104CB000980890916203891779F10E94980880936F
:104CC0006203909163039570953061F41F928F9306
:104CD00022E03BE03F932F930E9454070F900F90E8
:104CE0000F900F90F09062030FE813E08FE0E82E32
:104CF000F094D8019D968C91823021F46F2D8E2DE9
:104D00000E94CE16EA9403501109B7E0EB12F1CFDE
:104D10006F2D82E00E94CE162091E4003091E500D4
:104D200080917403909175032817390739F18091A8
:104D3000E4009091E50090937503809374030E94C2
:104D4000B4078115D9F080917E038430B9F4909135
:104D5000E9008091EC009F70879588278795892BC3
:104D600093E09093E9009091EB0090FF04C0909144
:104D7000EE0097FDE2C08F708093E9000E94150D50
:104D8000DCCE0E94150D94CE80917E03843021F1FB
:104D90001092580380E428E130E00FB6F894A8950B
:104DA000209360000FBE8093600083B7817F846092
:104DB00083BF83B7816083BF7894889583B78E7FE4
:104DC00083BF0FB6F894A8958091600088618093A6
:104DD0006000109260000FBE80915903811509F4A4
:104DE000ACCE0E94E616EFEBF3E081918111CCC0CE
:104DF00033E0EF3CF307C9F7A0CE8F3F09F4DAC0E8
:104E00008F5F80935F03191634F40E943B0B182FB9
:104E100010935B0303C09111D0C010E010160CF08A
:104E20005DC00E943B0B80935C03111509F447C0E1
:104E300000915C03011509F442C0612F110F770B3B
:104E4000880B990B0E94812923E333E343E35FE35B
:104E50006E837F83888799876E817F818885998516
:104E60000E94E5296A877B878C879D876A857B8579
:104E70008C859D850E94492960935B03602F000FFC
:104E8000770B880B990B0E94812923E333E343E3DB
:104E90005FE36E877F87888B998B6E857F85888996
:104EA00099890E94E5296A8B7B8B8C8B9D8B6A8903
:104EB0007B898C899D890E94492960935C031F141A
:104EC000A4F40E94850B80935D031E14A4F40E9439
:104ED000850B80935E030E940A1CE9CE011509F43C
:104EE000A4CF0E943B0B81959ECFF11471F30E94D9
:104EF000850B8195E8CFE11471F30E94850B8195B4
:104F0000E8CFE0911201F0911301E90FF11D20812A
:104F10009F5F309116019323909315012093F10028
:104F20009091E80095FD09C09091E80090FF05C0C0
:104F30009091E8009E779093E80090911501209160
:104F40001401291721F02091E80025FDDACF909176
:104F5000F3002091F200392F232B09F40CCF90910C
:104F6000E80090FF08CF9091E80095FD06C0909171
:104F7000E8009E779093E800FECE1092F100F3CF08
:104F80008F3F09F03DCF49CF80E189BD82E189BDE6
:104F900009B400FEFDCF8091D8008F7D8093D800AA
:104FA0008091E00082608093E0008091E00081FDCC
:104FB000FCCFC3CD19160CF428CF0E943B0B182F41
:104FC000119526CF1F920F920FB60F9211242F9397
:104FD0003F934F935F936F937F938F939F93AF9381
:104FE000BF93CF93EF93FF938091E10082FF09C0BD
:104FF0008091E20082FF05C08091E1008B7F809369
:10500000E1008091DA0080FF1FC08091D80080FF0E
:105010001BC08091DA008E7F8093DA008091D900E6
:1050200080FFB0C080E189BD82E189BD09B400FE86
:10503000FDCF81E080937E0380914D03811104C0F8
:105040000E9479080E94B40C8091E10080FF1FC08B
:105050008091E20080FF1BC08091E2008E7F8093F0
:10506000E2008091E20080618093E2008091D800AC
:1050700080628093D80019BC85E080937E03809184
:105080007F038093490310927F030E94FD1C80914F
:10509000E10084FF2DC08091E20084FF29C080E1FF
:1050A00089BD82E189BD09B400FEFDCF8091D800A1
:1050B0008F7D8093D8008091E1008F7E8093E10006
:1050C0008091E2008F7E8093E2008091E200816017
:1050D0008093E20080914C03811509F459C084E06B
:1050E00080937E030E94FD1C8091490380937F037F
:1050F0008091E10083FF34C08091E20083FF30C0E3
:105100008091E100877F8093E10082E080937E03BD
:1051100010924C038091E1008E7F8093E10080919A
:10512000E2008E7F8093E2008091E20080618093B4
:10513000E20042E060E080E00E94840CC1E0C093A5
:10514000050110924A0310927F0388E0E6E7F3E03E
:10515000DF011D928A95E9F70E941709C093180193
:10516000FF91EF91CF91BF91AF919F918F917F91DF
:105170006F915F914F913F912F910F900FBE0F90C4
:105180001F90189519BC10927E0310924D035CCFAE
:105190008091E30087FF02C083E0A2CF81E0A0CF2F
:1051A0001F921FB61F9211248F939F93AF93BF93AB
:1051B00080915803811113C08091800390918103E5
:1051C000A0918203B09183034196A11DB11D8093EC
:1051D000800390938103A0938203B0938303BF91D4
:1051E000AF919F918F911F901FBE1F90189578943B
:1051F0001F921FB61F9211248F939F93AF93BF935B
:105200008091800390918103A0918203B0918303E8
:105210000196A11DB11D8093800390938103A093FB
:105220008203B0938303BF91AF919F918F911F90A1
:105230001FBE1F90189597FB072E16F4009407D0F9
:1052400077FD09D00E94352907FC05D03EF49095E2
:1052500081959F4F0895709561957F4F0895EE0F4A
:10526000FF1F0590F491E02D0994AA1BBB1B51E18F
:1052700007C0AA1FBB1FA617B70710F0A61BB70BC6
:10528000881F991F5A95A9F780959095BC01CD016B
:1052900008950E9450296894B1110C94DF29089553
:1052A0000E94C42988F09F5798F0B92F9927B751C9
:1052B000B0F0E1F0660F771F881F991F1AF0BA95BA
:1052C000C9F714C0B13091F00E94DE29B1E0089511
:1052D0000C94DE29672F782F8827B85F39F0B93F03
:1052E000CCF3869577956795B395D9F73EF490956D
:1052F0008095709561957F4F8F4F9F4F0895E894EB
:1053000009C097FB3EF490958095709561957F4F0D
:105310008F4F9F4F9923A9F0F92F96E9BB279395BB
:10532000F695879577956795B795F111F8CFFAF4CB
:10533000BB0F11F460FF1BC06F5F7F4F8F4F9F4FFC
:1053400016C0882311F096E911C0772321F09EE85A
:10535000872F762F05C0662371F096E8862F70E0C0
:1053600060E02AF09A95660F771F881FDAF7880F9A
:105370009695879597F9089557FD9058440F551FB6
:1053800059F05F3F71F04795880F97FB991F61F0C7
:105390009F3F79F087950895121613061406551F3E
:1053A000F2CF4695F1DF08C0161617061806991FAA
:1053B000F1CF86957105610508940895E894BB279F
:1053C00066277727CB0197F908950E94F8290C9456
:1053D000692A0E945B2A38F00E94622A20F09523F5
:1053E00011F00C94522A0C94582A11240C94DF29A1
:1053F0000E94BC2970F3959FC1F3950F50E0551F93
:10540000629FF001729FBB27F00DB11D639FAA2719
:10541000F00DB11DAA1F649F6627B00DA11D661F68
:10542000829F2227B00DA11D621F739FB00DA11D89
:10543000621F839FA00D611D221F749F3327A00D43
:10544000611D231F849F600D211D822F762F6A2FDF
:1054500011249F5750409AF0F1F088234AF0EE0F44
:10546000FF1FBB1F661F771F881F91505040A9F771
:105470009E3F510580F00C94522A0C94DF295F3F27
:10548000E4F3983ED4F3869577956795B795F795AD
:10549000E7959F5FC1F7FE2B880F911D9695879525
:1054A00097F9089597F99F6780E870E060E00895A4
:1054B0009FEF80EC089500240A941616170618062C
:1054C0000906089500240A94121613061406050608
:1054D0000895092E0394000C11F4882352F0BB0F99
:1054E00040F4BF2B11F460FF04C06F5F7F4F8F4FFC
:0854F0009F4F0895F894FFCFCF
:1054F800032808140A011E32CD07BF1AF41A211B0B
:10550800601B7A010000FF0501FFFF00001007B5CE
:1055180014000069FFFF37414E53490049534F00BB
:105528004A495300E200E900EA00B500B600B300BA
:10553800B400B700CD00B80083018A01920194013C
:105548002102230224022502260227022A026F00D2
:10555800407F224D01CE00AC00520A6B0A840A003B
:106800008800EA44E944E244040005000600070069
:10681000080009000A000B000C000D000E000F001C
:1068200010001100120013001400150016001700CC
:10683000180019001A001B001C001D001E001F007C
:10684000200021002200230024002500260027002C
:10685000280029002A002B002C002D002E002F00DC
:10686000300031A132003300340035A1360037004A
:10687000380082003A003B003C003D003E003F00F3
:1068800040004100420043004400450046004700EC
:10689000480049004A004B004C004D004E004F009C
:1068A00050005100520053002E0054005500560075
:1068B000580059005A005B005C005D005E005F00FC
:1068C0006000610062006300640000005700850002
:1068D000CD440000000000000000000000000000A7
:1068E000000000000000A520890087008A008B00BE
:1068F000E000E100E200E300E400E500E600000063
:106900000100010001000100EA4401000100E2442D
:106910000100010001000100460001004A004B0097
:10692000010001004700480001000100E9440100A6
:106930000100010001000100010001003A003B00DC
:106940003C003D003E003F0040004100420043004B
:10695000010035004C0001000100440045005200D8
:1069600049000100010050004F0029004D004E0079
:1069700051000100010001000100010001000100BF
:1069800001000100010001000100010001000100FF
:1069900001000100010001000100010001004D00A3
:1069A0004A004E004B0001000100010001000100FF
:1069B00001000100010001000100010001000100CF
:1069C00001000100010001000100000001000100C0
:1069D00001000000000000000000000000000000B6
:1069E000000000000000010049000100010001005A
:1069F0000100010001000100010001000100000090
:00000001FF
